:100000000C94A0030C94D8030C94D8030C94D8033C
:100010000C94D8030C94D8030C94D8030C94D803F4
:100020000C94D8030C94D8030C94921F0C944E1F7C
:100030000C948F200C94D8030C94D8030C94D80300
:100040000C94D8030C94D8030C94D8030C94D803C4
:100050000C94D8030C946B200C94D8030C94D80304
:100060000C94D8030C94D8030C94D8030C94D803A4
:100070000C94D8030C94D8030C94D8030C94D80394
:100080000C94D8030C94D8030C94D8030C94D80384
:100090000C94D8030C94D8030C94D8030C94D80374
:1000A0000C94D8030C94D8030C94D80305010906CA
:1000B000A1018506050719E029E715002501950826
:1000C000750181020507190029EF1500250195F03A
:1000D000750181020508190129059505750191022F
:1000E000950175039101C00660FF0961A1010962D4
:1000F000150026FF0095207508810209631500266A
:10010000FF00952075089102C005010906A10105AF
:100110000719E029E7150025019508750181029569
:1001200001750881010507190029FF150026FF0048
:100130009506750881000508190129051500250196
:10014000950575019102950175039101C0FD377AFE
:10015000585A000004E6D6B44602002101160000F9
:1001600000742FE5A3E0043E01585D003D8889C678
:100170005436C3174FE4F772A1B40CBB256E0D3C87
:100180002803EEFC457FFF791E5BBCBF2CA656A161
:1001900020700DF095B3D6DFEE81587822460D39E8
:1001A000F2F94ACA1DCB2726DFA648526DAB612D56
:1001B00094F8B3A16C213C5648726401AB05CB9016
:1001C0005496A0D88A214E1A135B8D403A95EEDCE6
:1001D00037B6FEC4825BDBF23CAD86B29491180A5E
:1001E0004CDD8722B4045294F3398B85E05918ED25
:1001F0002D5F96174531A41F99E35E3070D01A4CDD
:100200006FCAC357D6ABB24B8FC07D34312E4CF280
:1002100067E1D48EDC928C8709E12FD584B52393D6
:10022000DBDCDC152E8BD2DA5298FBE98E5679682E
:10023000C411B6B13E749BDFFE07F16DBEA48F20E2
:10024000566976CF7A076BD7B7AA10549244432BDE
:10025000C81CE3D688526B8F89C2B21AEBAB2C5FF5
:100260006F2607B4AA806AAFAF9633298D88DD2E3A
:100270007CC6483216410592D5FB93F5D6457DFEE6
:1002800074B5BF0FF32C3F48220656C4B01D61F170
:1002900093333C92A3993AE0126CF9E76C2CFE641C
:1002A000D9173770566568BD10AFBDAE1D7E4C6165
:1002B000402E31B5ABF5988CF800095DE8D1ADF270
:1002C000E485AEB600596C7E0B723E04660001F404
:1002D00002BF080000C6D3947CB1C467FB020000D3
:1002E000000004595A010001006C04040CE90B00E1
:1002F00000020002006804040CE90B000003000186
:10030000006D04040CE90B00000400020052040418
:100310000CE90BFC06050001006E04040CE90B005F
:1003200000060002005404040CE90B000007000260
:10033000006A04040CE90B0000080001006F0404CB
:100340000CE90B0000120002007004040CE90B0021
:1003500000130002007204040CE90B0000140001F9
:10036000007404040CE90B0000150000000000827A
:10037000060412000029001E001F00200021002298
:1003800000230024002500260027002D002E003128
:100390000035002B0014001A000800150017001C7F
:1003A0000018000C00120013002F0030002A00007B
:1003B00000E00004001600070009000A000B000D11
:1003C000000E000F0033003400280000000000E1A0
:1003D0000000001D001B00060019000500110010A0
:1003E00000360037003800E50021520000E000E34D
:1003F00000E2000000000000002C000000000000EF
:10040000000000E600E700E400000035003A003B91
:10041000003C003D003E003F0040004100420043E0
:1004200000440045000100010039000100520001B4
:100430000001000100010001000100010001005263
:100440000001004C0000000100500051004F00016D
:10045000000100010001004A004B0050004F000164
:100460000000000000235200000100010001000113
:10047000000100010001004D004E0051000100018B
:1004800000000001000100225200000000000001F5
:100490000000000000000000000100010001000059
:1004A000000100010001000100010001000100AC99
:1004B00000AE00AB00A800AA00A9000100010001E5
:1004C0000001000100010001000100010001000124
:1004D0000001000100010001000100000001000115
:1004E0000001000100010001000100010001000104
:1004F00000010001000100000000000100000001F7
:1005000000010001000100010001000100010001E3
:1005100000010001000100000001000100010000D5
:1005200000000000000100000000000000000001C9
:1005300000010001000000010001000100010001B4
:1005400000010001000100010001000100010001A3
:100550000001000100010001000100010001000193
:100560000001000100010001000100010001000183
:100570000000000100010001000100010001000174
:100580000001000100010001000100010000000065
:100590000001000000010001000100010001000154
:1005A0000001000100010001000100010000000144
:1005B0000001000100000000000000010000000038
:1005C0000000000000010001000100000009025BC2
:1005D00000030100A0FA0904000001030101000961
:1005E00021110100012244000705810308000109CF
:1005F0000401000203000000092111010001222270
:1006000000070582032000010705030320000109FC
:100610000402000103000000092111010001223B36
:1006200000070584032000011201000200000008F9
:100630001B1B1B1B0001010203011C037600690048
:1006400061006C003A00660036003400630032003E
:1006500062003300630000001E036F007000690039
:100660006E0069006F006E00610074006500640038
:100670005F00360030000000120351004D004B00B7
:100680002F005600690061006C000000040309049B
:10069000000000000000000000000000000000005A
:1006A000000000000000000000000000000000004A
:1006B000000000007E0F00D4FFFFFFC7000000789D
:1006C00000000000000000002A2B280000000000AD
:1006D00000000000000000000000002900000000F1
:1006E0002C1E3420212224342627252E362D37385F
:1006F000271E1F202122232425263333362E373868
:100700001F0405060708090A0B0C0D0E0F10111225
:10071000131415161718191A1B1C1D2F3130232DF1
:10072000350405060708090A0B0C0D0E0F101112EF
:10073000131415161718191A1B1C1D2F3130354CA0
:1007400011241FBECFEFDAE0DEBFCDBF04B603FE3B
:1007500018C08091770490917804A0917904B091A9
:100760007A048730904BA740B04B59F4109277042D
:10077000109278041092790410927A04E0E0F8E381
:10078000099511E0A0E0B1E0ECE3F1E502C00590CD
:100790000D92AC33B107D9F724E0ACE3B1E001C06E
:1007A0001D92A737B207E1F70E94B6200C947D286E
:1007B0000C940000E8EDF0E080818E7F8083109241
:1007C000E2001092DA001092E100A0EEB0E08C910D
:1007D00081608C9380818F77808319BCA7EDB0E016
:1007E0008C918E7F8C9380818F7E808310923B04CE
:1007F00008952091E4003091E50095E6A90120914B
:10080000EC00822F817020FF06C08091E80080FFFD
:1008100006C080E008952091E80022FD1AC0809172
:100820004804882389F0853089F08091EB0085FDAC
:100830000FC02091E4003091E50042175307F9F210
:100840009150E1F684E0089582E0089583E00895F0
:1008500081E0089580914A0487FF13C08091E800E9
:1008600082FF06C08091E8008B778093E80004C087
:10087000809148048111F2CF089580914804882323
:10088000D9F38091E80080FFF8CF8091E8008E775F
:10089000ECCF982F9093E900242F762F50E0891702
:1008A00031F07091EC002091ED005091F00021FDAD
:1008B00007C09F5F973071F78093E90081E008954A
:1008C0003091EB003E7F3093EB003091ED003D7FA7
:1008D0003093ED003091EB0031603093EB0070937A
:1008E000EC002093ED005093F0002091EE0027FDE6
:1008F000E0CF80E00895B0E0A0E0E1E8F4E00C94FF
:10090000B327C8EDD0E088818F7E8883E7EDF0E0E3
:1009100080818160808384E082BF81E080933B049A
:1009200088818E7F888302EE10E0F8011082109299
:10093000DA0081EEC82ED12CF601108288818F77E3
:10094000888388818068888388818F7D888319BCAB
:1009500010924804109249041092470410924604E1
:1009600090EEE92EF12CF70180818B7F80838881C6
:100970008160888342E060E080E00E944904F601E3
:1009800080818E7F8083F801808181608083808177
:1009900088608083F70180818E7F80838881806179
:1009A0008883CDB7DEB7E8E00C94CF27FC018091B7
:1009B00050049091510486179707A0F061157105B6
:1009C00029F49091E8009E779093E80090E06115FB
:1009D000710551F4911108C08091E80082FF34C084
:1009E00080E00895BC01F2CF809148048823C1F1D2
:1009F0008530C1F18091E80083FD30C08091E8002E
:100A000082FDEACF8091E80080FFE1CF8091F30082
:100A10002091F200382F6115710519F02830310549
:100A200058F091E02830310509F090E02091E8007D
:100A30002E772093E800CBCF81918093F100615015
:100A400071092F5F3F4FE7CF80914804882341F021
:100A5000853041F08091E80083FFBECF81E00895AA
:100A600082E0089583E008950895089580913D04FB
:100A700008959C014FB7F894809137049091380401
:100A8000A0913904B0913A044FBF821B930B089593
:100A90002FB7F8946091370470913804809139042D
:100AA00090913A042FBF08952FB7F894809137049E
:100AB00090913804A0913904B0913A042FBF089561
:100AC00090910F019923D1F09091340497FF16C0B3
:100AD000E82FE695E695E695EE31E0F4F0E0EA5B86
:100AE000FE4F282F277081E090E001C0880F2A95E3
:100AF000EAF780959281892382830895E0E4F1E00A
:100B00009191891303C0DF0111971C9291E0E634A3
:100B1000F907B1F7089590910F019923C1F09091D1
:100B2000340497FF14C0E82FE695E695E695EE317C
:100B3000F8F4F0E0EA5BFE4F877021E030E001C09E
:100B4000220F8A95EAF78281822B82830895A0E49E
:100B5000B1E0EFEF90E02D91821751F0EF3F19F4E3
:100B6000211101C0E92F9F5F9630A9F7EF3F09F4EB
:100B700008950E2E000CFF0BE25CFE4FE6CFE091D5
:100B80003204F0913304309729F00190F081E02D88
:100B90000995089580E008954115510511F0FA0175
:100BA00009950895CF93DF93EC014091250450916E
:100BB000260460912704709128042FB7F89480913F
:100BC000370490913804A0913904B0913A042FBFB2
:100BD000841B950BA60BB70B843F9140A105B10573
:100BE00018F58091250490912604A0912704B091D6
:100BF00028048093210490932204A0932304B093AB
:100C0000240484EF91E0A0E0B0E080931D04909371
:100C10001E04A0931F04B0932004D0932D04C0930E
:100C20002C04DF91CF9108950E9448056093210420
:100C300070932204809323049093240482E390E031
:100C4000A0E0B0E0E2CFFC018481862351F49281E0
:100C50009923B9F06923808583FF05C081E0611184
:100C60000FC080E00895892F8F7092959F70982B08
:100C7000862F8F7062956F70682B81E09613F1CF8D
:100C8000089581E0FDCFDC01609117048091180484
:100C9000962F891301C00895292F30E0F901EE0F36
:100CA000FF1FE15FFB4F408151814A175B07A1F4B1
:100CB00087E08A9FA0018B9F500D11244A585C4FFA
:100CC00081E0FA0184839613E6CF2F5F3F4F2370B4
:100CD00033272093170408952F5F3F4F922F93706F
:100CE000D8CF1092740310927303E6E7F3E0858186
:100CF000811102C014821682379683E0EE3AF8071B
:100D0000B1F70895B0E0A0E0E8E8F6E00C94B12770
:100D10008FEF9FEF4430510508F469C040913404CF
:100D200041FB882780F990E0880F991F42FB00273C
:100D300000F910E0000F111F000F111F802B912BE5
:100D400040FBCC24C0F8D12C8C299D2943FB2227C1
:100D500020F9C22FE0E0DE2F53E0CC0FDD1F5A95C3
:100D6000E1F78C2B9D2B44FBAA27A0F9B0E0E4E02F
:100D7000AA0FBB1FEA95E1F78A2B9B2B45FBEE27B9
:100D8000E0F9F0E0A5E0EE0FFF1FAA95E1F78E2B4A
:100D90009F2B46FB222720F930E0B6E0220F331FBD
:100DA000BA95E1F7822B932B47FB222720F930E0FD
:100DB0003695322F222737952795822B932B20911A
:100DC0003504322F3170F32EE82EF92A2695217042
:100DD000B22EBB0CA82EBF28C501BB0CAA0BBB0BA7
:100DE000FB0180839183A283B38390E080E0CDB741
:100DF000DEB7EAE00C94CD27809152049091530421
:100E000090930C0180930B010895EBEFF1E090E0DB
:100E100080E06FE87EE146EB5EE127EF3DE176831F
:100E20006583508747833287218796878587019618
:100E30003F968830910599F7089581152CE7920720
:100E400041F420911B0430911C04232B11F490E0F9
:100E500080E0089580E00895F894E82FE295EF701F
:100E6000F0E031A1282F2F7081E090E001C0880FC1
:100E70002A95EAF7982F9095932391A392A1892B15
:100E800082A3789408959091340492FF10C041E0B9
:100E9000282F2471243009F040E031E0282F2871F8
:100EA000283009F030E0431711F02CE0822793FF3F
:100EB00010C041E0282F2471243109F040E031E0D6
:100EC000282F2871283109F030E0431711F02CE069
:100ED00082273091350430FF10C051E0282F217156
:100EE000213009F050E041E0282F2871283009F026
:100EF00040E0541711F029E0822731FF10C041E093
:100F0000282F2171213109F040E031E0282F28718C
:100F1000283109F030E0431711F029E0822794FDD1
:100F2000877E089582389105B9F1B0F48133910537
:100F300009F47DC048F48932910509F46DC08A3204
:100F4000910509F47BC008958533910509F45FC0CC
:100F50008933910509F10895833E9105D9F138F45B
:100F6000803E910529F1823E910579F10895863EF2
:100F70009105D9F1873E910509F43EC0843E910563
:100F800041F52091350421FF24C08091340484FD73
:100F900019C087EE90E0089520913404237009F081
:100FA0005AC02091350423FF14C089E290E00895CF
:100FB0002091340420FD38C03091350430FF09C041
:100FC00024FF43C090E080E008952091340422FD86
:100FD000F7CF08952091340422FD3AC030913504B2
:100FE00030FD39C024FFF5CFEDCF2091340423FF2D
:100FF000F0CF24FDE7CFCDCF2091340423FD2EC0C8
:101000003091350431FFEECF84EE90E008952091C9
:10101000340425FFDECFC9CF2091340425FD21C043
:101020002091350423FFD5CF89E390E0D2CF2091E2
:10103000340426FFCECF8AE290E008952091340454
:1010400026FFC7CF81E390E0089583EE90E00895F6
:1010500082EE90E0089580EE90E0089586EE90E0B4
:10106000089585E390E008950F931F93CF93DF9346
:101070000E949207EC01C11582E5D807D8F5C11589
:1010800080E5D80708F0B3C0C83ED105C8F4C03E1B
:10109000D10580F4C53AD10548F4C430D10550F4E7
:1010A000C130D10539F0D0E0C0E004C0CD3CD1055D
:1010B000D0F3D065CE01DF91CF911F910F910895AC
:1010C000C11581E0D80778F38E011127C11580E2A0
:1010D000D80708F0A6C08D2F0E944307C82FC8016B
:1010E0000E949207D0E0DC2FCC27CC27DF71C82BE1
:1010F000D92BE0CFC03682E5D807F0F4C03482E5C2
:10110000D80708F054C0C03282E5D80708F048C0BC
:101110002C2F2695269580E2289F900111248C2F54
:101120008370C1E0D0E002C0CC0FDD1F8A95E2F7EA
:10113000C22BD32BDD68BECFC03C82E5D807F8F4C4
:10114000C03A82E5D80708F047C0C03882E5D80722
:1011500008F0A9CF2C2F26952695277080E2289F8E
:10116000900111248C2F8370C1E0D0E002C0CC0F1D
:10117000DD1F8A95E2F7C22BD32BDA689BCFC03EE6
:1011800082E5D80708F08FCF9E0143E0220F331F7E
:101190004A95E1F7207E3327CE0183709927E4CF6B
:1011A000CF71D0E0DC2FCC27C16FD06A83CF2C2F3A
:1011B00026952695277080E2289F900111248C2F78
:1011C0008370C1E0D0E002C0CC0FDD1F8A95E2F74A
:1011D000C22BD32BDC686ECF8C2F8F710E944307FC
:1011E000C82FD0E0DC2FCC27CC27DF7163CF8C2F2A
:1011F0008F710E94430795E0D695C7959A95E1F7C0
:10120000CF70D0E0DC2FCC27282F30E084FF05C042
:1012100084E0220F331F8A95E1F7C22BD32BD069CC
:1012200049CFC8010E949207EC0144CF809590916C
:101230004E03982390934E03089580914E0390910E
:101240007604892B909129049095892390912A0402
:10125000892B0895292F953078F58F3068F590E027
:101260003FE0239F800D911D1124682F677023E0BC
:10127000969587952A95E1F7FC01EE0FFF1FE80F81
:10128000F91FE659FE4F50E040E080E0219130E048
:10129000062E02C0369527950A94E2F7217033276F
:1012A000042E01C0220F0A94EAF7822B4F5F5F4F92
:1012B0004330510559F7089580E00895292F95305E
:1012C00098F58F3088F590E03FE0239F800D911DC9
:1012D0001124282F277041E001C0440F2A95EAF716
:1012E00023E0969587952A95E1F7FC01EE0FFF1F05
:1012F000E80FF91FE659FE4F30E020E070E0519111
:10130000DF011197CB01022E02C0969587950A94B2
:10131000E2F7817081958527842385278C932F5F41
:101320003F4F2330310559F708958093C001089548
:101330009091C00121E030E0F90101C0EE0F8A95E3
:10134000EAF7D90102C0AA0FBB1F6A95E2F7EA2BA0
:1013500001C0220F4A95EAF7892F8E23E81305C0B2
:10136000292B822F0E949509089520952923F9CFD2
:1013700021E030E001C0220F8A95EAF720958091A4
:10138000C00182230E949509089521E030E001C048
:10139000220F8A95EAF78091C001822B0E9495095D
:1013A00008958093BF0108959C013A9521153F410E
:1013B00050F5FC01EE27F170BC0166277270AC019C
:1013C000442754709C012227387094FF0EC080E19E
:1013D000EF2B09F480E0672B09F08062452B09F0C0
:1013E0008064232B89F08068089581E0EF2B09F455
:1013F00080E0672B09F08260452B09F08460232B85
:1014000019F08860089580E008950F931F93CF939B
:10141000DF938B01EA0190914804943061F5809349
:10142000E9008FEF9091E800815095FD06C095EDA1
:101430009A95F1F700008111F5CF8091E80085FFC2
:101440001AC00E94F903811111C08091E80085FD46
:1014500006C08091E8008E778093E800F2CFF80113
:1014600081918F018093F100219779F78091E800B5
:101470008E778093E800DF91CF911F910F910895AF
:1014800040E250E0BC0184E00E94050A0895CF9339
:10149000DF93EC0148E050E0BC0181E00E94050AC6
:1014A00088E0FE01AEE3B4E001900D928A95E1F789
:1014B000DF91CF91089581E08093E00080E28093F6
:1014C000D8001092C9008FE19EE40197F1F700C0A7
:1014D000000087E090EBDC01809377049093780420
:1014E000A0937904B0937A0488E19CE00FB6F89455
:1014F000A895809360000FBE90936000FFCFCF93BC
:10150000C82F6FEF811168EF85E290E00E944128BB
:101510006FEFC11161E086E290E00E9441286FEF19
:10152000C11161E287E290E00E944128CF910895C5
:10153000CF93DF93C5E9D3E060E0CE010E9441285C
:101540002196C11584E0D807B9F7DF91CF910895AE
:101550001F93CF93DF93122F8430E0F46530D0F4E3
:101560004F30C0F4C42FD0E0CC0FDD1F9EE1699F47
:10157000C00DD11D112496E9899FC00DD11D1124E4
:10158000632FCE0189960E944128612FCE018A9651
:101590000E944128DF91CF911F91089585E290E04C
:1015A0000E942328883F89F486E290E00E94232845
:1015B000813059F487E290E00E94232891E0813243
:1015C00009F090E0892F8170089580E0FCCF0F939F
:1015D0001F93CF93DF93843030F5653020F54F3083
:1015E00010F5C42FD0E0CC0FDD1F2EE1629FC00D9F
:1015F000D11D112436E9839FC00DD11D1124CE01C8
:1016000089960E942328082F10E0102F0027CE0172
:101610008A960E9423289801282BC901DF91CF9137
:101620001F910F91089590E080E0F8CF462F209110
:10163000E5013091E601232B99F4703F39F4603FC6
:1016400079F48091E7019091E8010895753040F4B4
:101650006F3030F4843020F4672F0E94E70A089539
:1016600090E080E00895CF92DF92FF920F931F9356
:10167000CF93DF936C010091C0018091BF01082BD3
:10168000C3E0D0E010E0FC2EC8010C2E02C09595FE
:1016900087950A94E2F780FD0CC02197A0F7F12C02
:1016A0008F2DDF91CF911F910F91FF90DF90CF9001
:1016B0000895B6018C2F0E94160B0E9434080197E2
:1016C00061F3EECFA6E0B0E0E8E6FBE00C94B827CB
:1016D0009C01FC01868197810097E1F486E0DE01A0
:1016E000119601900D928A95E1F7F9012581898182
:1016F0009A81222399F0662389F00E94330B182FD8
:10170000682F89819A810E945E0969817A81812F7F
:101710000E94160B2696E3E00C94D4270E942A0917
:10172000182FF3CF0F931F93CF93DF9302E514E0AD
:10173000C1E8D2E0CE010E942328F80161918F0117
:10174000681719F0CE010E9441282196C53AF2E0AF
:10175000DF0781F7DF91CF911F910F9108950F93CC
:101760001F93CF93DF9302E514E0C1E8D2E0CE01EE
:101770000E942328F80181938F012196C53AF2E057
:10178000DF07A9F7CFEED2E0FE0185919491009793
:1017900011F0FC0109952C96F3E0CF37DF07A1F794
:1017A000DF91CF911F910F9108959B01883070F4C4
:1017B0009AE0899FB00111246B557D4F4AE050E0BB
:1017C000C9010E94132890E080E008958FEF9FEFF9
:1017D0000895DA019C012E5F3F4FF9014591549124
:1017E000F90125913491A217B30758F0FC01349602
:1017F000859194910E9403280E94920B90E080E0D2
:1018000008958FEF9FEF0895DB01FC01329625913B
:1018100034914217530758F0FC0134966591749146
:10182000A901CD010E94032890E080E008958FEF88
:101830009FEF0895AAE0B0E0E0E2FCE00C94AF274F
:1018400006ED12E084ECC82E82E0D82E95E4E92E55
:1018500093E0F92E27E0922E33ECA32E32E0B32E44
:1018600088248394D6010D931D936D014AE050E0C6
:10187000B701CE0101960E941328F8013896DF01C6
:10188000892D1D928A95E9F789819A81D80111964F
:101890009C938E938F8112968C9312978D811396C1
:1018A0008C931397888514968C9314978985159635
:1018B0008C9315978B819C8117969C938E9316978A
:1018C00018961C9218978A8587FF3CC01E961C921A
:1018D0001E921D9780FF03C0D80118968C9281FF3D
:1018E00004C0F80190859260908782FF07C0D801FC
:1018F00018969C911897946018969C9383FF04C047
:10190000F80190859860908784FF07C0D8011896E9
:101910009C911897906118969C9385FF04C0F801DC
:10192000808580628087015F1F4FFAE0EF0EF11C17
:1019300085E9E81683E0F80609F094CF2A96ECE0F2
:101940000C94CB27F801B686A586C4CFAAE0B0E0F8
:10195000ECEAFCE00C94B327E3E7F2E080E5DF017A
:101960001D928A95E9F7E6E7F3E088E3DF011D922F
:101970008A95E9F783E7C82E82E0D82E7F0105EF2C
:1019800012E0F701D182C0824AE050E0B801CE01F6
:1019900001960E94132888E0FE013196D60101903D
:1019A0000D928A95E1F789859A85D70113969C93C4
:1019B0008E931297BAE0CB0ED11CE7E0EE0EF11C2D
:1019C000065F1F4F0534F3E01F07D9F62A96E8E0BB
:1019D0000C94CF27AAE0B0E0E0EFFCE00C94AF2736
:1019E0008E010F5F1F4F8AE0F80111928A95E9F787
:1019F00098E1E92E91E0F92E6801AA24A394B12C74
:101A0000F70181917F018F3F09F446C0F894E82FD8
:101A1000E295EF70F0E021A18F70A50102C0440FA4
:101A2000551F8A95E2F7CA01922F982B91A392A194
:101A30008095892382A3789400C0EDE1F1E021E054
:101A400030E0912C812C41914F3F09F44EC0A42FDE
:101A5000A295AF70B0E090968C9190E04F7002C06C
:101A6000959587954A95E2F780FD3FC0C901882A80
:101A7000992A220F331F51E0EC32F50721F7F701C5
:101A8000319780818F3F11F00E942C0780EA8A9560
:101A9000F1F7F60191828082F2E0CF0ED11C4DE188
:101AA000E41641E0F40609F0ABCF4AE050E0B8019B
:101AB00085EB91E00E94F627892BE1F08AE0F8019E
:101AC000A5EBB1E001900D928A95E1F781E080935A
:101AD000B4010E9454059093B3018093B20110E0C9
:101AE000812F2A96ECE00C94CB2790E080E0BFCFCA
:101AF00010E01FC01091B401112389F38091B2014D
:101B00009091B3010E943905059748F34AE050E0EF
:101B100065EB71E08BED91E00E94F627892B41F394
:101B20008AE0E5EBF1E0ABEDB1E001900D928A9532
:101B3000E1F71092B401D4CFCF93C0910F010E946E
:101B40001D09CC2351F19091340497FF26C0809356
:101B5000470140E250E068E871E086E491E00E94CD
:101B6000F627892BC1F080E2E6E4F1E0A8E8B1E0D5
:101B700001900D928A95E1F7E0913204F0913304DF
:101B8000309749F086E0809346010480F581E02D8E
:101B900086E491E00995CF91089580933E0148E055
:101BA00050E068EA71E08EE391E00E94F627892B0D
:101BB00091F388E0EEE3F1E0A8EAB1E001900D9244
:101BC0008A95E1F7E0913204F0913304309719F3EC
:101BD0000280F381E02D8EE391E0DCCFCF93DF93A1
:101BE000EC0149855A856D857E850E94CC058B81E7
:101BF000982F9095809176048923809376040E9493
:101C00009C0D85E0FE0111928A95E9F7DF91CF9155
:101C10000895CF93DF93EC018C8181FD11C0826028
:101C20008C83809176049B81892B809376040E941B
:101C30009C0D4F8158856D857E85CE010E94CC0517
:101C400010923104109230048C8180FD03C0CE01CB
:101C50000E94EE0DDF91CF91089580910D01877F55
:101C600080930D01909176049D7F9093760484FF7C
:101C700008C08F7E80930D0180914E038260809317
:101C80004E0380910D0185FF08C08F7D80930D016B
:101C900080914E03806280934E030E949C0D0895B4
:101CA00010924E0380910F01882381F080913404BB
:101CB00087FF0CC0E8E4F1E08EE1DF011D928A9518
:101CC000E9F7109276040E949C0D0895E0E4F1E09B
:101CD00086E0F3CFAAE2B0E0E0E7FEE00C94B8279C
:101CE0008AE494E02091F100DC012D93CD01B4E071
:101CF00082359B07B9F780914B04833009F472C099
:101D0000B8F4813009F449C0823009F4B3C080913D
:101D1000E80083FF96C280914A0490914B049A3068
:101D200008F08FC2E92FF0E0E158F74D0C94E0275E
:101D30008A3009F48EC08B3009F471C0893039F7CC
:101D400080914A04813219F780914E0490914F049A
:101D5000009711F00297D9F68091E800877F809371
:101D6000E8008091E80082FF38C09091F3008091F4
:101D7000F200029731F48091F100813011F0863049
:101D800021F48091F10080933D048091E8008B77ED
:101D90008093E8000E942A04BACF80914A04813AD5
:101DA00009F0B5CF8091E800877F8093E8008091AB
:101DB0004E0490914F04892B61F468E08EE394E027
:101DC00070E00E94D6048091E8008B778093E80051
:101DD0009ECF60E090E080E0F3CF809148048111D5
:101DE000C0CF95CF80914A04813A09F090CF80917D
:101DF0004E0490914F04892B09F089CF8091E8001F
:101E0000877F8093E8008091E80080FFFCCF80917D
:101E10000F018093F1008091E8008E77B9CF809117
:101E20004A04813209F073CF80914E0490914F049F
:101E3000892B09F06CCF8091E800877F8093E800C0
:101E40000E942A0480914C0480930F010E94500E3E
:101E50005ECF80914A04813209F059CF8091E80029
:101E6000877F8093E8000E942A0480914D0480932C
:101E70003C044DCF80914A04813A09F048CF8091CB
:101E8000E800877F8093E8008091E80080FFFCCF26
:101E900080913C04BECF803899F0823809F0D1C1DE
:101EA00080914E048F70873008F0CBC18093E90099
:101EB0008091EB0085FB882780F91092E90006C02D
:101EC0008091460490914704911182609091E800BE
:101ED000977F9093E8008093F1001092F100809139
:101EE000E8008E77AAC1882309F498C1823009F0EE
:101EF000A8C180914C0481119BC180914E048F70C8
:101F00002FEF280F263008F09CC18093E900209124
:101F1000EB0020FF8DC1933031F48091EB008062A3
:101F20008093EB0085C19091EB0090619093EB0062
:101F300021E030E001C0220F8A95EAF72093EA0001
:101F40001092EA008091EB008860EACF811179C19C
:101F500010914C041F778091E3008078812B80934F
:101F6000E3008091E800877F8093E8000E942A04C4
:101F70008091E80080FFFCCF8091E300806880932F
:101F8000E30082E0111183E0809348045AC1805835
:101F9000823008F056C120914C0430914D042C3D04
:101FA000E3E03E07A1F583E08A838AE289834FB7A5
:101FB000F894DE01139620E03EE051E2E32FF0E0DA
:101FC00050935700E49120FF03C0E295EF703F5F0C
:101FD000EF708E2F90E0EA30C0F0C7968D939D93FE
:101FE0002F5F243159F74FBF8091E800877F80939E
:101FF000E8006AE270E0CE0101960E94D60480916A
:10200000E8008B778093E8001CC1C096E7CF8091F1
:102010004E0490914F04432F55274330510509F446
:102020004AC078F54130510509F485C08BE590E050
:10203000EDECF5E04230510509F003C12091E800D4
:10204000277F2093E800209150043091510482179B
:10205000930708F49C0140E02115310509F070C098
:1020600041116EC08091E80082FDC9CF8091480483
:10207000882329F2853019F28091E80083FFF2CF9E
:10208000BECF4132510509F447C04232510509F033
:10209000D8C08330910508F0D4C0FC01EE0FFF1FBB
:1020A000E15DFE4F0190F081E02D845D9E4FDC01EB
:1020B0008C9190E01DC0332721303105E9F02115C6
:1020C000310579F022303105F9F02330310509F07E
:1020D000B8C0EAE3F6E0E4918E2F90E0EAE3F6E0A0
:1020E00007C0ECE8F6E0E4918E2F90E0ECE8F6E033
:1020F000009709F4A6C0A2CFE8E7F6E0E4918E2F9E
:1021000090E0E8E7F6E0F4CFE8E5F6E0E4918E2F22
:1021100090E0E8E5F6E0ECCF8330910508F091C05F
:10212000880F991FFC01EB5CFE4F0190F081E02DC0
:1021300089E090E083CF82E190E0E8E2F6E07ECFB4
:1021400080914804882309F45ACF853009F457CF89
:102150008091E80083FD53CF8091E80082FD82CF1B
:102160008091E80080FF78CF9091F3008091F20099
:102170002115310519F08830910550F041E008979C
:1021800009F040E08091E8008E778093E80064CF0A
:1021900044914093F1003196215031090196E8CFE6
:1021A000803809F04EC08091E800877F8093E80076
:1021B000809149048093F10092CE811142C0109128
:1021C0004C041230F0F58091E800877F8093E8009E
:1021D000109349040E942A04112311F084E005C0E1
:1021E0008091E30087FDFACF81E08093480442E0CC
:1021F00061EC81E00E94490442E261EC84E00E94CB
:10220000490442E261EC82E00E94490442E260EC4F
:1022100083E00E9449048091480413C080914C04DB
:10222000813079F481E0933009F080E080934704B5
:102230001092E9008091E800877F8093E8000E9477
:102240002A048091E80083FF0AC08091E800877F1C
:102250008093E8008091EB0080628093EB00AA9667
:10226000E3E00C94D427E2E5F4E0128E138E8FEABB
:1022700090E09183808385E0848F28E833E1338385
:10228000228322E330E0378B268B28EC30E0318F3D
:10229000208F158E178E168E20E530E031A320A3F7
:1022A00082A30E94920B0E94500E1092350410924D
:1022B0003404E5E3F4E08081846080836091340439
:1022C0007091350484E090E00E945F280E94AF0B7B
:1022D0000895AEE1B0E0EFE6F1E10C94AE27A090F6
:1022E0001B04B0901C0481E090E090931C04809348
:1022F0001B0485E7C82E83E0D82E00E0760110E0AD
:1023000015C0F40125913491472D612F802F0E9433
:10231000A80A82E0880E911C7394EFE07E12F1CF40
:10232000FEE1EF0EF11C1F5F153019F04701712C13
:10233000E8CF0F5F86E9C80ED11C0430F9F60E9481
:1023400033111A8219821C821B821E821D821886FA
:102350001F8288EC90E09A87898705EA12E04AE0BC
:1023600050E0B801CE0101960E946528065F1F4F1C
:10237000053FE2E01E0799F77E01FBE0EF0EF11C3E
:102380008AE0F70111928A95E9F74AE050E0B80136
:10239000C7010E946528065F1F4F0534F3E01F0741
:1023A000A1F77E0185E1E80EF11C8AE0F7011192A8
:1023B0008A95E9F78FEF9FEF9A8F898F87E08E8F4D
:1023C0004AE050E0B801C7010E946528065F1F4F30
:1023D0000539F3E01F07A1F7B0921C04A0921B047B
:1023E0006E96EDE00C94CA2780E00E947F0A60E0C0
:1023F00088E290E00E9441280E9469110E94980A98
:1024000081E00E947F0A0895CF92DF92EF92FF92BF
:102410008FEF9FEF4430510508F46CC0FB01C08082
:10242000D180E280F3800E94500E80913404C0FA83
:1024300080F9B701A601769567955795479540FBBA
:1024400081F9B701A60122E07695679557954795E2
:102450002A95D1F740FB82F9B701A60133E07695C2
:102460006795579547953A95D1F740FB83F9B701A2
:10247000A601E4E07695679557954795EA95D1F7DB
:1024800040FB84F9B701A601F5E07695679557956D
:102490004795FA95D1F740FB85F9B701A601A6E06B
:1024A0007695679557954795AA95D1F740FB86F99C
:1024B000B701A601B7E07695679557954795BA9508
:1024C000D1F740FB87F98093340480913504D0FA2A
:1024D00080F9D1FACC24C0F8C0FA81F98093350490
:1024E000609134047091350484E090E00E945F288C
:1024F00090E080E0FF90EF90DF90CF9008950E94F1
:10250000500E2FEF84E39CE0215080409040E1F793
:1025100000C0000088E19CE00FB6F894A895809375
:1025200060000FBE90936000FFCF882341F080953C
:10253000909176048923809376040E949C0D0895DF
:10254000882339F090917604982B909376040E941A
:102550009C0D0895882321F00E9416090E949C0D6D
:102560000895882339F090914E03982B90934E0351
:102570000E949C0D0895882341F09CEF980F913A9A
:1025800028F40E9460050E949C0D089590E2980F27
:102590009830D8F7877091E001C0990F8A95EAF7D3
:1025A000892F0E941609EFCFFF920F931F93CF93AD
:1025B000DF93F82E00912E0410912F0401151105C0
:1025C00009F449C010922D0410922C041092290491
:1025D00010922A04D8011696CD91DC919E013A956D
:1025E00021153F4108F4D07ED1E0C11101C0D0E0F7
:1025F000D8011996ED91FC911A97309731F01B96FE
:102600006D917C9180E00995D823DD2339F08CEF22
:102610008C0F813A30F58C2F0E946005FF2099F0D5
:10262000E0912E04F0912F04808584FD0CC08091F0
:102630002B04882341F0808191819C012150310934
:102640002F333E47A0F00E949C0D10922F04109251
:102650002E0410922B04C801CDB7DEB7E5E00C9430
:10266000D2270E949C0D8C2F0E94BB12D7CF0E94B4
:10267000D205E9CFCF93DF93EC010E94BB12CE01CC
:102680000E94D4099E01205E31092830310510F0E6
:10269000CD2B29F40E94AA12DF91CF9108950E94B8
:1026A0009512FACFCF93C82F8823B9F18CEF8C0FF6
:1026B000813AA8F580910F01882301F180913404BB
:1026C00087FF1CC0EC2FE695E695E695F0E0EA5B07
:1026D000FE4F828190E04C2F477021E030E002C035
:1026E000220F331F4A95E2F782239323892B81F02F
:1026F0008C2F0E9460050E949C0D0AC0E0E4F1E06E
:1027000086E491E02191C21799F38E179F07D1F7C4
:102710008C2F0E948B050E949C0DCF91089580E222
:102720008C0F8830D0F7C77021E030E001C0220F55
:10273000CA95EAF780914E03822B80934E03EBCF2C
:102740001F93CF93DF93182FEB010E945213209712
:1027500039F4812F0E94BB12DF91CF911F91089510
:102760008FE99FE00197F1F700C000002197EFCFBC
:10277000B0E0A0E0EEEBF3E10C94B127EC018AE0CD
:10278000A82E2881222309F4ACC0213009F04DC0C5
:102790008981813099F48E010E5F1F4F8A8160918B
:1027A000720470917304893321F060917004709108
:1027B00071040E94A013E8012196E3CF823039F41E
:1027C0008E010E5F1F4F8A810E945213F4CF833017
:1027D00039F48E010E5F1F4F8A810E94BB12EBCF2E
:1027E000843011F02196E8CF2A81229690E080E093
:1027F000AE014F5F5F4F2053330B2A30310550F04D
:102800000097D1F2EFE9FFE03197F1F700C0000047
:102810000197F6CFA89EB001A99E700D1124C901A1
:10282000860F971F2981EA01E3CFE22FF0E0E05401
:10283000F94FB490822F86958695869590E0FC019D
:10284000E055F94FE4902770F12C022E02C0F59468
:10285000E7940A94E2F7F1E0EF22FF24FC01E0564E
:10286000F94FC490D12C022E02C0D594C7940A947B
:10287000E2F731E0C322DD24FC01E057F94F049177
:1028800010E002C0159507952A95E2F7017011270F
:10289000E114F10419F081EE0E945213C114D10425
:1028A00019F086EE0E94521370E060E08B2D0E94BA
:1028B000A013C114D10419F086EE0E94BB12E114DA
:1028C000F10419F081EE0E94BB120115110509F403
:1028D00073CF60917004709171048CE20E94A01318
:1028E0006BCFCDB7DEB7EAE00C94CD27CF93DF9363
:1028F000EC010E94D4099E01205E31092830310587
:1029000010F0209741F40E94B1128C2F0E945213B4
:10291000DF91CF9108950E94A012F7CF662329F08E
:10292000209176042260209376049C013052211578
:10293000304308F499270E9476140895B0E0A0E08F
:10294000E4EAF4E10C94B3276C018B01E42E80914E
:102950000D0182FF8EC0C0917103D0917203CC151E
:10296000DD0521F0C114D10409F083C080910D016F
:102970008B7F80930D0181FD6EC080916F039091DC
:102980007003A801481B590B81E020910B01309185
:102990000C014217530708F480E08170F82E8091F3
:1029A0000D01F0FA81F980930D01FE0183E0F695A7
:1029B000E7958A95E1F7EE71FF27E15BFC4F2081F7
:1029C0003181AE014F70552781E090E002C0880F41
:1029D000991F4A95E2F7FF2009F43FC0822B932B01
:1029E0009183808380914E0381FF08C080910D0107
:1029F000806180930D0182E00E94160980914E0350
:102A000085FF08C080910D01806280930D0180E2F6
:102A10000E9416096F2DCE010E948E14EE2031F017
:102A200080916D0485FF02C086FF37C080917004DD
:102A3000909171040197B0F48091710390917203A9
:102A40009C0130522115304308F499270E943A1313
:102A50000E942D0E1EC081E0A0CF8095909582230C
:102A60009323BECFEFE9FFE03197F1F700C00000FC
:102A7000E1CFC601905281159043A0F4C601992779
:102A80000E943A1380917103909172038C159D05F9
:102A9000F9F21093700300936F03CDB7DEB7E8E04F
:102AA0000C94CF27C601ECCFA7E0B0E0EAE5F5E152
:102AB0000C94A9277C01DC0114968C91882309F4DD
:102AC00049C161E0C7010E94620B8C01F701858159
:102AD000882309F180913004909131040097D9F056
:102AE00008171907C1F0FFE08F9FC0011124FC01F6
:102AF000E150FE4F20812460208385509E4FDC01F1
:102B00000D931C930E94090E1092760461E0C70198
:102B10000E94620B8C01F7018581882309F4B1C002
:102B2000C80197578038910508F0DDC0F02EFFE00E
:102B3000F01708F40FC18FEF93E00E942328811152
:102B400009C105E913E0F11036C019821A821B820F
:102B50001C82BB24BA9478013FEFE31AF30AC80140
:102B60000E94232889831A82882309F4F3C08130C4
:102B700009F081C0680142E0C40ED11CC7010E9467
:102B80002328E82E8A83882309F4E4C0C6010E9422
:102B90002328F82E8FEF8E0D8330D8F4680153E090
:102BA000C50ED11CFB82FF2021F0CE0101960E94B0
:102BB000B8138601D0CF011524E0120709F4CAC06A
:102BC000C8010E942328811101C0FA940F5F1F4F92
:102BD000BACF8BEF8E0D833030F5C8010396FB82A0
:102BE0006C01FF2031F36801A4E0CA0ED11C0E94E1
:102BF00023288C838823E9F28B819C818130BFEF6D
:102C00009B0710F0982F8827E6E0EE1631F0F7E0EA
:102C1000EF1631F00E94771ECCCF0E94521EC9CF12
:102C20000E94D21DC6CF24E0E212C3CF680134E077
:102C3000C30ED11CC80103960E942328FF2009F46B
:102C400089C0882309F486C08150990BB89E9001F1
:102C5000B99E300D11244F2D4150550BCA01820FE2
:102C6000931F019708F4A5CFAFE9BFE01197F1F7E3
:102C700000C00000F6CFCE0101960E94B813670194
:102C800098CF6801E7E5DE1AFFEFCF16D10409F00F
:102C900050F561EF71E08C2D0E94D50B892B19F551
:102CA0008FE08C9DF0018D9DF00D1124E550FE4FBD
:102CB0008281813099F58091F1019091F201892B07
:102CC00091F08091F3019091F401892B61F0809152
:102CD000F5019091F6012091F7013091F801822BD6
:102CE000932B892B19F1D70115965C905520B1F1E2
:102CF0000E35BCE71B0759F10F35ECE71E0741F015
:102D00000D35FCE71F0751F5809100018823F9F08C
:102D10001092000180E00E94D4121CC0823019F78A
:102D20008091F5019091F601892BE9F22FE02C9D1D
:102D3000C0012D9D900D1124FC01E150FE4F20811A
:102D40002E7F208385509E4F0E94090ECCCF81E0BC
:102D5000809300012796E2E10C94C5278091000141
:102D6000882309F43AC3480120EE821A9108409062
:102D70004E0338E08316910408F086C0980127704E
:102D8000332781E090E001C0880F2A95EAF75520AB
:102D900009F477C0482AD7018D919C910E942A0995
:102DA00021E030E0F90102C0EE0FFF1F8A95E2F743
:102DB000FF83EE8320902E0430902F0460906801F2
:102DC000709069011D822D81E22FF0E0EE0FFF1F50
:102DD000EC53FD4FC080D180C114D10409F452C31B
:102DE000411005C0D60112968C91811187C0F60161
:102DF000838190E02E813F8182239323892B09F4E4
:102E00007DC08085982F977009F487E038E083169D
:102E1000910408F053C0552009F44CC08695817088
:102E2000882309F46BC0D601AD90BC900A151B0530
:102E300019F4552009F462C0C214D30409F45EC029
:102E4000D6011D96ED91FC91309721F08081882369
:102E500009F454C0642DC6010E942306882309F496
:102E60004DC00A151B0509F077C30115110509F4BA
:102E700078C3511078C3A614B70409F03FC0512C91
:102E800072C38095482287CF552009F4E4C210937D
:102E90006901009368010E944805609325047093BE
:102EA0002604809327049093280410922D041092F6
:102EB0002C0471CF82FB882780F9B2CF5520F1F026
:102EC0008170AECF0E94BB126DC30497813A910509
:102ED00048F48A2D0E948B05552009F47EC20E9479
:102EE0009C0D38CF0E949C0D8FE39CE90197F1F770
:102EF00000C000008A2D0E945213EECF9D819F5F7B
:102F00009D8361CFFC01208131810217130709F0F5
:102F10005DC251105DC210922B0480E00E94D41259
:102F20005CC2902F812F92C2F9014385548565853B
:102F30007685C9010E94CC05D60114968C9181FF3B
:102F4000B5C2C6010E94EE0D80913004909131040B
:102F50000817190709F0AAC2109231041092300420
:102F6000A5C290910D01892F8E7F90FF8160809383
:102F70000D010E942D0EC5C280910D018E7FF7CFED
:102F800080910D018F7E013E110531F0053E110546
:102F9000E9F480910D018F7D80930D0180910D01E9
:102FA00080FF19C0D70115968C910832110528F5BC
:102FB0000E31110508F068C00430110580F5882332
:102FC00051F0109272031092710305C0C801905223
:102FD0008115904318F7D70115968C910737BCE7F8
:102FE0001B0709F4B0C00837ECE71E0709F093C2CD
:102FF000882309F4B7C082E0A9C00933110558F449
:103000000D32110518F40B321105C9F690916D04BB
:1030100092FDD5CF08C004361105C1F3D0CF9091F1
:103020006D0494FDCCCF882309F486C090914E03A3
:10303000892F8D7F71F1109272031092710380912C
:103040006D0481FD26C0F80193E0F695E7959A9509
:10305000E1F7EE71FF27E15BFC4F98012F703327FA
:1030600081E090E002C0880F991F2A95E2F78095D1
:10307000909520813181822393239183808360E026
:10308000C8010E948E1466CE90916D0493FD97CF77
:10309000CACF88E0F701AEECB1E001900D928A95BD
:1030A000E1F71092D1011092D001E0907103F090FD
:1030B00072030E151F0581F580916D0485FF2CC0EC
:1030C00020910D0121FBBB24B0F821FF02C086FF37
:1030D00023C020916F0330917003F601E21BF30BC4
:1030E000E83CF105C8F491FF08C080910D018061B2
:1030F00080930D0182E00E94160980914E0385FFA6
:1031000008C080910D01806280930D0180E20E94D1
:1031100016096B2DC701B5CF80910D0191FB81F987
:103120001093720300937103D0927003C0926F03E7
:10313000846080930D010ECE970140E0B601C80176
:103140000E949E1407CE882349F081E00E94C509A1
:1031500043E062E081E00E949809FCCD81E00E949A
:10316000B809F6CF82E0FBCF6FEF7FEF90E080E011
:103170000E945F280E947F12D70116962D913C91E4
:1031800021153105F9F0C9010E943408D82E082F05
:10319000292FD70115963C91192F12951F701830C1
:1031A00009F479C030F51230D0F1412F4850550B59
:1031B0004230510510F40E94BF0560E0C7010E9433
:1031C000620BC8CDF70100811181992369F0C80114
:1031D0000E94330BD82E682FC8010E945E09B801E7
:1031E0008D2D0E94160BD0CFC8010E942A09D82E1F
:1031F000F6CF193009F4B9C01C30B8F6823F09F493
:10320000C5C0833F09F4C8C0813F09F0CFC0892FF2
:103210008F71332309F4B7C00E94C509C6CFB92FF7
:10322000BF70DB2E207F19F0D29480EFD822332399
:10323000C9F0DD2069F080E2800F883010F00111C4
:103240000BC080914E03D82AD0924E030E949C0D51
:10325000802F0E945213A9CF80917604D82AD09251
:103260007604F4CF802F0E94BB12DD2009F49DCF9D
:1032700080E2800F883010F0011106C08D2D0E9471
:1032800016090E949C0D91CFD09480917604D8228B
:10329000D0927604F6CF937089F5311186CF3D2D0B
:1032A000329536953770330F330F8D2D8F70032E77
:1032B00001C0880F0A94EAF74D2D4071D4FE07C073
:1032C0004FE050E001C0440F3A95EAF7409526954B
:1032D00026952370223069F050F43091BF012130DF
:1032E00029F0842B83230E94D1095FCF832B842B69
:1032F000FACF482B8091BF018427F5CF96953323D1
:1033000011F0922F9170992309F44FCF302F3295FD
:1033100036953770330F330F802F8F70032E01C017
:10332000880F0A94EAF7402F407104FF07C04FE06E
:1033300050E001C0440F3A95EAF74095269526954E
:103340002370223069F050F43091C001213029F00F
:10335000842B83230E94950928CF832B842BFACFBB
:10336000482B8091C0018427F5CF092F0F7033239C
:1033700039F0802F0E94C5098D2D0E94B11215CF02
:103380000E94AA12802F0E94B8090FCF892F8F7137
:10339000332309F441CFF7CF80E03323D9F22F71E3
:1033A00081E001C0880F2A95EAF7D4CF311151CFBF
:1033B000893349F4EFEFF7EE23E0E150F04020408D
:1033C000E1F700C000000E94BB12EFCE552029F0AB
:1033D000DC0118968C9185FFA0CDC80197558F3FD1
:1033E000910511F008F062C0BFE00B9FF0011124BD
:1033F0009F0125503E4F6901D70115968C91E150F0
:10340000FE4F908180FB90F99083882309F48CCD46
:103410000E9454059093CD018093CC01F6018281E6
:103420008F5F82838091760490914E03892B8383F2
:103430004581568165857685C6010E94CC05D601F9
:1034400014968C9181FF6DCD90E080E090933004D4
:10345000809331042BC08091680190916901081715
:10346000190781F4109269011092680110922504E5
:1034700010922604109227041092280410922D0412
:1034800010922C0480912E0490912F04009709F43F
:10349000A4CFA8E08A16910408F034CD642D0E94D0
:1034A0002306811103C081E00E94D41280916D0433
:1034B00080FF91CD0E9454056C01F701858188231E
:1034C00009F45ECD80910D0182FF08C02EEC31E041
:1034D00040E0B60190E080E00E949E140431FCE7D9
:1034E0001F0709F449CD05312CE7120709F439CD3E
:1034F00003313CE7130729F480910D01816080932B
:103500000D01C80190528115904308F047CD1092EB
:10351000720310927103D70115969C91992309F4B7
:103520002BCE0130BCE71B0709F424CE0330ECE7B7
:103530001E0709F419CE01151C4709F01DCE0E9483
:10354000500E2FEF34E34CE0215030404040E1F783
:1035500000C000000E945B0AA114B10409F08BCCEA
:10356000512CB12CA12C80E00E94D412D0922F04B7
:10357000C0922E0481E080932B04D60115968C9185
:103580008093290451100EC0AB2861F0F6018081B0
:1035900091819C0124503109213A310508F092CCE7
:1035A0000E946005D6011696AD90BC90C5019A9513
:1035B00081159F4110F4E0EEBE2277247394C5017B
:1035C00001978F339E4708F0712CD6011996ED9123
:1035D000FC911A97309731F01B966D917C9181E0A8
:1035E00009957822772079F0F601868197810E94EB
:1035F000D40980932A04C501F8E08F16910408F0DD
:1036000064CC0E94D2050E949C0D66CC0F931F9340
:10361000CF93DF938091AE03882359F08091750397
:10362000CCE09091AE03891748F01092AE0310924F
:103630007503DF91CF911F910F910895D1E0D80FBD
:10364000D0937503082F10E08C9FC0011124815581
:103650009C4FFC0124812223B1F0FC01268137819B
:10366000232B29F4208531852F3F3F4F11F40E94F1
:103670005415C09FF001C19FF00D1124E155FC4F7E
:103680001482109276048D2FCCCF10921A041092CF
:10369000190410920E0180911804809317040E945F
:1036A00071060E94061B0895B0E0A0E0EAE5FBE188
:1036B0000C94AA27C091170497E0992E01E010E01E
:1036C0002CE0322E34E0432E55245394809118047C
:1036D0008C1309C00E94061B0E947106CDB7DEB78D
:1036E000E1E10C94C627D0E0FE01EE0FFF1FE15F81
:1036F000FB4F80819181989ED001999EB00D11243D
:10370000AA58BC4F14962C911497211159C060905F
:10371000AE03EFEAF3E030E020E0812C5D012615F6
:1037200008F04CC0E284F384D501CD90DC906FEFBB
:103730007FEF712C472D50E0DA01AA0FBB1FAC0DB3
:10374000BD1D0D90BC91A02D109731F0EA16FB061F
:1037500009F4BA017394EECF6F3F7607A9F1D8014F
:1037600002C0AA0FBB1F6A95E2F78A2AB801072C8C
:1037700002C0660F771F0A94E2F7AB01415051096E
:103780008416150601F5329EF001339EF00D1124CA
:10379000E155FC4F989ED001999EB00D1124AA5876
:1037A000BC4F12962D913C91139737832683448208
:1037B000108211829187808715965C920E94430641
:1037C0002196C37083CF14822F5F3F4F3C96A7CFC3
:1037D000A8E1B0E0EEEEFBE10C94A927498B5A8BEF
:1037E0006B8B7C8B8D8B9E8B882349F0809166013F
:1037F00090916701019690936701809366018E898D
:10380000811110927604188A1F8686E0FE01719657
:10381000DE01199601900D928A95E1F78D85882336
:1038200089F061E0CE0109960E94620B7C018E85D1
:1038300020E5E2162CE7F20651F48823F1F081E04E
:1038400080930E01CE0109960E945415C4C031E543
:10385000E3163CE7F30629F4882379F00E94451B20
:10386000F1CF42E5E4164CE7F40639F4882329F059
:1038700080910E018111F2CFE2CF06E713E0412CD7
:10388000D12CC12C66246394712CF80140815181A4
:10389000AA24AA94BA2C20E0822F90E0FC01EE0F1B
:1038A000FF1FE40FF51F608171816115710531F013
:1038B000E616F70609F45C012F5FEECF512CFFEFFF
:1038C000AF16BF0609F449C0F801448150900E01BB
:1038D000852D411180E0F82FF1705F2EF8012580D1
:1038E00086819E85992309F4F3C0552009F4F0C020
:1038F0008090680490906904211013C0A3010A2CE1
:1039000001C0440F0A94EAF7842B868380917303E5
:10391000909174038815990520F490927403809215
:103920007303C30102C0880F991F2A95E2F701971C
:10393000F80126812817190681F4809119049091C5
:103940001A04009709F44BC00E943905881699069D
:1039500008F045C021E0F80124834528FFEFCF1A85
:10396000DF0A095F1F4F28E0C216D10409F08DCF8E
:103970008E85882309F402C1442009F4FFC00E9407
:10398000540590931A04809319048091AE038830F3
:1039900010F591E0980F9093AE0398E0FE013996F0
:1039A000DE01119601900D929A95E1F73CE0839F1C
:1039B000C001112481559C4F28E0FE013196DC01A5
:1039C00001900D922A95E1F72FEF3FEFFC0131872F
:1039D0002087F386E2866896E2E10C94C527809101
:1039E000170450911804982FF0E0E0E0851314C0FC
:1039F000909317040E171F0709F4AFCF90E0FC0156
:103A0000EE0FFF1FE15FFB4FD182C08201968370F2
:103A1000992780931804A1CF882E912CF401EE0FE2
:103A2000FF1FE15FFB4F2081318147E0429FD001C2
:103A3000439FB00D1124AA58BC4F6D917C911197F2
:103A4000788F6F8B40E020E030E0E32FF0E0EE0F66
:103A5000FF1F6F89788DE60FF71FA080B180A1143A
:103A6000B104B9F0F8012080318020E005C0A6162D
:103A7000B70609F4452D2F5FE22FF0E0EE0FFF1F90
:103A8000E20DF31D608171816115710581F73F5F62
:103A9000DCCF4423D1F0F801231708F0FD0121E029
:103AA0002483E017F10721F490931704542E55CF87
:103AB000981305C0EA17FB0711F49F5F93709401F8
:103AC0002F5F3F4F822F837091CFF0E0E0E0F7CF80
:103AD00090E0211020C0B30102C0660F771F2A9525
:103AE000E2F79B01215031092817390731F44423AB
:103AF00009F442C0C6010E944306C3010A2C01C05A
:103B0000880F0A94EAF7982F9095F8018681892307
:103B10008683522C22CF9C010A2C02C03595279512
:103B20000A94E2F7A90141705527BC01615071095F
:103B300086239723892BE1F4452BD1F0F80182816C
:103B40009381892B91F019821A820E9454059C83DB
:103B50008B83F4E0FD831E82F80182819381988734
:103B60008F83CE0101960E945415F8011582C5CFAE
:103B7000F22FF1702F2EC1CF252CBFCF90911704BB
:103B800080911804981729F00E94541B411023CFEC
:103B900059CE0E94061B10921A04109219040E941A
:103BA0007106F4CFA6E0B0E0E8EDFDE10C94B92792
:103BB0009093E8018093E701811520E2920730F4A9
:103BC0000E943A132696E2E00C94D52780EF898371
:103BD0008A830E9454058160682F9C838B8349816E
:103BE0005A817C8181E090E00E94E81BEBCF0F932B
:103BF0001F93CF93DF938C01EB0161EF71E08C2F6A
:103C00000E94D50B892BA1F48091700490917104CE
:103C1000019798F4DD27C751DE4F8881F8011282A1
:103C20001882833029F180F4813091F08230B9F02C
:103C3000DF91CF911F910F910895EFE9FFE0319748
:103C4000F1F700C00000E4CF8430B9F0853081F78F
:103C50008091F1019091F201009751F306C080919B
:103C6000F3019091F401009799F30E94D21DE0CFE7
:103C70008091F5019091F601F6CF8091F701909136
:103C8000F801009791F72091F1013091F2018091B4
:103C9000F3019091F40121153105F1F2009729F714
:103CA000C901E3CFA6E0B0E0E8E5FEE10C94B92756
:103CB0009093E8018093E701811520E2920730F4A8
:103CC0000E9476142696E2E00C94D52780EF898333
:103CD0008A830E9454058160682F9C838B8349816D
:103CE0005A817C8181E091E00E94E81BEBCFCF9369
:103CF000DF93EC010E94521E809170049091710438
:103D0000019730F4CE010E94D21DDF91CF9108952A
:103D1000EFE9FFE03197F1F700C00000F1CF0F931A
:103D20001F93CF93DF938C01862F61EF71E00E9488
:103D3000D50B892BB1F4C091F101D091F2012097FC
:103D400081F0F8018281833051F4CE010E94771E08
:103D5000CE010E94771ECE010E94771E02C08430E1
:103D6000D0F7DF91CF911F910F9108950F931F937B
:103D7000CF93DF938C01EB0161EF71E08C2F0E94F8
:103D8000D50B892B09F05CC0FE01FF27D8011296E4
:103D90008C911297E751FE4F8130B9F414969C91A3
:103DA00092FF02C080830AC090FFFCCF82E0808334
:103DB0008091F3019091F4010097B9F48091F101A1
:103DC0009091F2010097E1F110C08230B9F514969C
:103DD0008C9182FD28C080FD0BC083E080838091A0
:103DE000F5019091F601009701F10E94521E28C042
:103DF00084E080838091F7019091F8010097A9F702
:103E00008091F1019091F2010097F9F00E94771EE4
:103E10008091F3019091F401009739F78091F101BD
:103E20009091F201E2CF85E080838091F101909141
:103E3000F201009729F00E94771EF0CF86E0808380
:103E4000DF91CF911F910F9108958091F30190918F
:103E5000F401B8CFA6E0B0E0E0E3FFE10C94B727AF
:103E60000E9454058C018091B0019091B10180179E
:103E7000910781F019821A820E945405682F4981A6
:103E80005A81792F80E090E00E94E81B1093B101E5
:103E90000093B0012696E4E00C94D3271F920F9272
:103EA0000FB60F9211242F933F934F935F936F930D
:103EB0007F938F939F93AF93BF93CF93DF93EF93B2
:103EC000FF93D091E900DF708091EC00C82FC170A2
:103ED00080FDC0E81092E9008091F000877F809318
:103EE000F00078940E946A0E1092E9008091F00030
:103EF00088608093F000CD2BCF70C093E900FF91D4
:103F0000EF91DF91CF91BF91AF919F918F917F9171
:103F10006F915F914F913F912F910F900FBE0F9036
:103F20001F9018951F920F920FB60F9211242F9386
:103F30003F934F935F936F937F938F939F93AF9331
:103F4000BF93EF93FF938091E10082FF09C08091BE
:103F5000E20082FF05C08091E1008B7F8093E10049
:103F60008091DA0080FF24C08091D80080FF20C0BB
:103F70008091DA008E7F8093DA008091D90080FFF3
:103F80009DC080E189BD82E189BD09B400FEFDCFFD
:103F900081E08093480480913B04811109C00E9414
:103FA000DA030E947B048091E20084608093E20047
:103FB0008091E10080FF17C08091E20080FF13C074
:103FC0008091E2008E7F8093E2008091E200806128
:103FD0008093E2008091D80080628093D80019BC61
:103FE00085E0809348048091E10084FF2BC080919C
:103FF000E20084FF27C080E189BD82E189BD89B5E7
:10400000982F917080FFFBCF8091D8008F7D809397
:10401000D8008091E1008F7E8093E1008091E200E2
:104020008F7E8093E2008091E20081608093E200C5
:1040300080914904882309F447C084E080934804B0
:10404000809148048091E10083FF27C08091E200C5
:1040500083FF23C08091E100877F8093E10082E0AD
:1040600080934804109249048091E1008E7F8093F0
:10407000E1008091E2008E7F8093E2008091E20077
:1040800080618093E20042E060E080E00E944904A9
:104090008091F00088608093F000FF91EF91BF91D4
:1040A000AF919F918F917F916F915F914F913F91D0
:1040B0002F910F900FBE0F901F90189519BC109262
:1040C000480410923B0474CF8091E30087FD93E095
:1040D00090934804B5CF78941F921FB61F92112475
:1040E0008F939F93AF93BF9380913704909138043F
:1040F000A0913904B0913A040196A11DB11D80939D
:10410000370490933804A0933904B0933A04BF91D4
:10411000AF919F918F911F901FBE1F9018951F9276
:104120001FB61F9211248F939F93AF93BF938091DB
:104130003604811113C08091370490913804A09106
:104140003904B0913A044196A11DB11D8093370402
:1041500090933804A0933904B0933A04BF91AF917F
:104160009F918F911F901FBE1F901895CDB7DEB7FE
:10417000E0970FB6F894DEBF0FBECDBF85B780685D
:1041800085BF85B7806885BF84B7877F84BF0FB63A
:10419000F894A895809160008861809360001092E7
:1041A00060000FBE80E890E00FB6F8948093610045
:1041B000909361000FBE8AE297E090933D01809357
:1041C0003C010E9405070E94A60C0E941A0C0E9446
:1041D000AF0B0E94DA030E947B048091E2008460AE
:1041E0008093E2007894809148048823A1F0109194
:1041F000E9001F709091EC00892F817090FD80E89C
:10420000182B1092E9008091E80083FD0E946A0E4D
:104210001F701093E90082E084BD93E095BD9AEF92
:1042200097BD80936E000E94CE0A811102C00E9449
:10423000F41108E111E0FDE1EF2EF1E0FF2ED801CD
:104240008D918D018F3F11F00E942C07E016F10631
:10425000B1F70DE111E0F80181918F018F3F11F06D
:104260000E942C07F1E00C321F07A9F78AE0EBED62
:10427000F1E0DF01282F1D922A95E9F7E5EBF1E047
:10428000DF011D928A95E9F790E080E00E942B28DB
:10429000863E9E4F21F40E94CE0A811168C066EED0
:1042A0007EEF90E080E00E945F2860E082E090E096
:1042B0000E94412881E08093BF0161E083E090E0AB
:1042C0000E94412860E074E184E090E00E945F2851
:1042D00060E086E090E00E94412860E087E090E0A6
:1042E0000E94412840E050E0BA0188E090E00E943E
:1042F000532860E084E290E00E94412860E087E17A
:1043000090E00E94412860E08CE090E00E9441280B
:1043100060E08DE090E00E94412819821A821B82A1
:104320001C821D821E821F82188648E050E068E1D0
:1043300070E0CE0101960E94312840E050E0BA01C1
:1043400080E290E00E94532880E00E947F0A0E9451
:10435000F41140E050E0BA018FE090E00E94532851
:1043600040E050E0BA0183E190E00E94532882E0EF
:1043700090E00E9423288093C10184E090E00E9495
:104380002B2890933504809334040E94EA0CEFEFBD
:10439000F6E721E0E150F0402040E1F700C00000E6
:1043A0000E94EA0C8091DF019091E00194FF08C027
:1043B0006FEF7FEF90E080E00E945F280E945B0A31
:1043C00083E090E00E9423280E94D10981E091E0DF
:1043D0009093330480933204CE0101967C01809146
:1043E000480400E112E1853009F492C00E94EA0C11
:1043F00072EC872E71E0972EEBED6E2EE1E07E2EB3
:10440000D301F401219131918D919D9141E0EC3CDA
:10441000F40709F487C028173907A1F3512C332476
:104420003394D3010D911D913D01F401A190B19000
:104430004F01A016B10659F1A026B126412CCC247B
:10444000C394D12CC5018C219D21892BB1F04BA6A1
:104450005CA60E9454059EA78DA73FA691E09801F7
:104460002C213D21232B09F490E098AB4BA55CA5B2
:104470006DA57EA58FA50E94E81B4394CC0CDD1C86
:10448000FFE04F12DFCFF401329711830083539482
:1044900025E05212C6CF0E9448054AC080914804C8
:1044A000843021F110923604A8E1B0E0E0E40FB6C8
:1044B000F894A895A09360000FBEE093600083B7C6
:1044C000817F846083BF83B7816083BF7894889540
:1044D00083B78E7F83BF0FB6F894A8958091600054
:1044E000886180936000109260000FBE8091470445
:1044F000882371F00E94EA0CEBEDF1E0819191913B
:10450000892B09F0DAC425EE31E02E173F07B1F709
:1045100080914804853009F4C1CF0E94500E0E945A
:10452000BF0564CF2817390709F078CF0E942A1FEA
:1045300080912C0490912D04892B09F43EC0409168
:1045400021045091220460912304709124042FB718
:10455000F8948091370490913804A0913904B09177
:104560003A042FBF841B950BA60BB70B40911D047B
:1045700050911E0460911F047091200484179507C8
:10458000A607B707D0F080912C0490912D040E94CB
:10459000761410922D0410922C0410922104109283
:1045A0002204109223041092240410921D041092ED
:1045B0001E0410921F0410922004009130041091E8
:1045C000310401151105B9F08091CC019091CD0114
:1045D0000E943905893C910570F03FE0039FC001BE
:1045E0001124FC01E150FE4F208122FD04C08550C2
:1045F0009E4F0E94090E80910E01882301F1809147
:10460000190490911A040097D1F00E943905209165
:104610007303309174032817390788F490911704B5
:1046200080911804981709F475C00E94541B1092C9
:1046300074031092730310921A041092190480915B
:104640006D0480FF1EC080910D0182FF1AC00E9480
:10465000540520916F0330917003AC01421B530B42
:1046600020910B0130910C014217530750F02EECB2
:1046700031E041E0BC0180917103909172030E948E
:104680009E140E94BF059091D601891721F0809356
:10469000D6010E94480580914804843009F09FCEDD
:1046A00083E08093E9008091E80082FF98CE8091BA
:1046B000E80090E085FF0BC00E94F90340E2C42EA1
:1046C000D12C8E010F5F1F4F8823B1F191E08091B3
:1046D000E8008B778093E800992309F480CE00915D
:1046E000E5011091E60189810115110599F18E3FCF
:1046F00009F0B7C08A81833020F08550833008F0FC
:10470000B0C0EA81EE3008F0ACC0F0E0E757F74DFA
:104710000C94E0270E94061B10921A0410921904B0
:104720000E9471068CCF8091F100D8018D938D018C
:10473000B1E0CB1AD10851F28091E80085FDF3CFAA
:104740008091E8008B778093E8000E94F90388232A
:1047500099F3BCCF8C3009F4E7C070F5843009F4CC
:10476000CAC050F4823009F46BC008F0B5C0813083
:1047700009F462C08FEFC6C3863009F4D2C008F4D2
:10478000C5C08B30B9F780911B0490911C04892B14
:1047900009F467C040E250E0BE016F5F7F4F82E0E6
:1047A0000E94050AEFEFF1EE24E0E150F0402040D6
:1047B000E1F700C0000002CE803109F4E3C080F5CB
:1047C0008E3009F4B7C008F4B2C080911B049091F8
:1047D0001C04892B09F445C00C8110E00D31110532
:1047E00008F03FC0CA80DB80DC24CD24DC245701E4
:1047F0000E0D1F1DC6018B569C4F0A151B0589F116
:104800003BE6C316D10428F4D50114966C910E949E
:104810004128BFEFAB1ABB0AEFEFCE1ADE0AEACF90
:10482000823109F4B4C008F4B0C0833109F4DAC0AD
:104830008E3F09F09FCF65CF1A8289E08B8311C02C
:104840008A81823009F47DC3833091F0813009F090
:1048500091CF0E9448050E94E6276B837C838D835D
:104860009E8340E250E0B70182E00E94050AB7CD86
:1048700080911B0490911C04892B99F38091DB019A
:104880009091DC019827892798279C838B838091BE
:10489000DD019091DE019827892798279E838D83DB
:1048A0008091DF019091E0019827892798279887C8
:1048B0008F838091E1019091E201982789279827C1
:1048C0009A8789878091E3019091E401982789274D
:1048D00098279C878B87C5CF8A81823009F04ACF81
:1048E0006B817C818D819E810E94E62788E290E029
:1048F0000E944128B6CF4C816B818A810E94E70AD1
:104900009827892798279E838D83ABCF2D813E8161
:104910003227232732274C816B818A810E94A80A83
:10492000A0CF0E9469119DCF80E18A839ACF1A821D
:104930008BE684CF0C8110E00D31110508F091CF8A
:10494000CA80DB80DC24CD24DC2457010E0D1F1D22
:10495000C6018B569C4FA016B10609F482CFEBE638
:10496000CE16D10460F40E942328D50114968C93AE
:10497000FFEFCF1ADF0A2FEFA21AB20AE9CFF50133
:104980001482F6CF0E94980A6CCF84E0CECF0C81BF
:1049900010E00D31110508F064CFAA80BB80BA2465
:1049A000AB24BA249E012F5F3F4F6901020F131FF2
:1049B000C5018996C016D10609F453CF38E5A31670
:1049C00032E0B30660F40E942328D60114968C933B
:1049D000FFEFAF1ABF0A2FEFC21AD20AE9CFF601D2
:1049E0001482F6CFCC80D12C3DE1C316D10408F05F
:1049F00038CF0A811B81102701271027083542E094
:104A0000140708F02ECF88E592E0801B910B8C15DF
:104A10009D0508F426CF380189E2680E711C80914B
:104A20001B0490911C0428014C0C5D1C892BA1F5E2
:104A3000580191E0A922BB2400FF0DC0C80188964F
:104A40000E9423289D8189279827892781159C47C3
:104A500011F48FEF8D83460140FE17C0B1E08B1A31
:104A6000910835E0232E312C2C0E3D1E280C391CCC
:104A7000C3018C0D9D1D0E942328F1019081811599
:104A80009C4719F48FEFD1018C93F701EA0DFB1DC0
:104A90002FEFA814B90410F067011AC09481858122
:104AA00081159C4711F42483258332E0A30EB11CA9
:104AB0003296EFCF083542E0140728F4D601149659
:104AC0006C910E944128BFEFCB1ADB0A0F5F1F4F8A
:104AD000C80189964016510669F7C3CE88E0E0E127
:104AE000F1E0DE01919601900D928A95E1F780E266
:104AF000D7011D928A95E9F786E0898388E0FE0157
:104B0000B196DE01159601900D928A95E1F7A9CE36
:104B100088E9898381E08A831B821C82A2CE8C81F2
:104B2000682F70E0762F66278B81860F972F911D57
:104B3000092E000CAA0BBB0B25E0880F991FAA1F9A
:104B4000BB1F2A95D1F7AC01BD01405E5F4F6F4F8F
:104B50007F4F481759076A077B0708F482CE8839C8
:104B6000E1E09E07A105B10508F07BCE4939F1E0EF
:104B70005F076105710520F048E951E060E070E0F1
:104B8000481B590BBC01635B7E4FC7010E94ED2798
:104B900068CE4AE150E06FEF70E0CE0107960E94C8
:104BA0000C2880911B0489830A8383E08B831C82F9
:104BB00082E08D838CE08E8354CE81E090E09093F0
:104BC000E6018093E50182E390E09093DA0180931F
:104BD000D9010E9454059093D8018093D70141CE0A
:104BE000012B61F11091E1010091E0018091D70169
:104BF0009091D8010E9439058536910540F104FF56
:104C000026C010FF24C00E9454059093D8018093C1
:104C1000D7018091D9019091DA0101979093DA013F
:104C20008093D901892B51F41092E6011092E5018D
:104C300081E090E090931C0480931B0480911B04FE
:104C400089838091E5018A838091D901F7CD82E340
:104C500090E09093DA018093D901F0CF10921C0478
:104C600010921B04FECD0B811C8140E250E06FEFDF
:104C700070E0C7010E940C2825EE32E090E080E051
:104C8000AC014E5F5F4F4132510508F0EACDF901AA
:104C9000659174910617170730F48E0D9F1DDC0186
:104CA0006D937C93CA01245F3F4FB3E025373B07E8
:104CB00039F7D7CD4B815C8185EE92E025E733E073
:104CC000FC01659174914617570709F40CC10C96C5
:104CD00028173907A9F74ECD8B819C8105EE12E08C
:104CE000F801259134918217930709F40DC1045FEF
:104CF0001F4FF3E005371F0799F7CC24CA94DC2C2B
:104D00001EC10E943311ADCDEB81E73008F0A9CD73
:104D1000F0E0E956F74D0C94E027FE0133968EE162
:104D2000DF011D928A95E9F788E089838A8386CD21
:104D30008C811AE06E01B1E2CB0ED11CF601212F5D
:104D400011922A95E9F7B6010E94D50B8983F601E5
:104D5000DE01129601900D921A95E1F782CD1C8129
:104D60008AE0FE013596DE01919601900D928A95BA
:104D7000E1F789A19AA10E941D079AA389A38BA19B
:104D80009CA10E941D079CA38BA38DA19EA10E94A4
:104D90001D079EA38DA38FA198A50E941D0798A70C
:104DA0008FA38FEF183068F43AE0139FB0011124FD
:104DB0006B557D4F4AE050E0CE0181960E946528F8
:104DC00080E089830E9405074CCD6C812AE0CE01EA
:104DD0008196DC01E22F1D92EA95E9F7683008F030
:104DE00046C0629FB00111246B507D4F4AE050E0F5
:104DF0000E94132880E089838AE0FE01B196DE01DB
:104E0000129681CE1C818AE0FE013596DE019196D4
:104E100001900D928A95E1F789A59AA50E941D0738
:104E20009AA789A78FEF183068F4FAE01F9FB001A6
:104E300011246B507D4F4AE050E0CE0181960E94D4
:104E4000652880E089830E94A60C0BCD6C812AE046
:104E5000CE018196DC01E22F1D92EA95E9F76830D8
:104E600030F4629FB00111246B5B7C4FBFCF8FEF9A
:104E7000C2CF1C818AE0FE013596DE019196019039
:104E80000D928A95E1F78BA19CA10E941D079CA31E
:104E90008BA38FEF183068F4FAE01F9FB001112444
:104EA0006B5B7C4F4AE050E0CE0181960E94652802
:104EB00080E089830E941A0CD4CC09BD19BD09B4C5
:104EC00000FEFDCF8091D8008F7D8093D800809127
:104ED000E00082608093E0008091E00081FDFCCFE3
:104EE0000E94500E15CBFC01369625913491211568
:104EF000310509F43FCC4FE150E0BE016E5F7F4FBA
:104F0000F90109958983ADCCF80138962591349142
:104F10002115310509F4F1CE4CE150E0BE016B5F83
:104F20007F4FC801F90109956C01892B41F4F80103
:104F30003A9685919491009711F0FC010995C982E8
:104F400090CC88E290E00E9423281B821C821D8264
:104F500032CE2F923F924F925F926F927F928F92BA
:104F60009F92AF92BF92CF92DF92EF92FF920F93F8
:104F70001F93CF93DF93CDB7DEB7CA1BDB0B0FB602
:104F8000F894DEBF0FBECDBF09942A8839884888BF
:104F90005F846E847D848C849B84AA84B984C88455
:104FA000DF80EE80FD800C811B81AA81B981CE0F4C
:104FB000D11D0FB6F894DEBF0FBECDBFED01089531
:104FC000EE0FFF1F0590F491E02D099469279627B5
:104FD00069277827872778270895FB01DC0102C01D
:104FE00005900D9241505040D8F70895FB01DC0127
:104FF00004C08D910190801921F441505040C8F7B0
:10500000881B990B0895FB01DC0102C001900D92F1
:1050100041505040D8F70895DC0101C06D934150D4
:105020005040E0F70895DC01CB01FC01F999FECF77
:1050300006C0F2BDE1BDF89A319600B40D92415020
:105040005040B8F70895F999FECF92BD81BDF89A06
:10505000992780B50895A8E1B0E042E050E00C94B3
:105060001528DC01A40FB51F4150504048F0CB017A
:10507000840F951F2E910E94422841505040D0F736
:105080000895262FF999FECF92BD81BDF89A019718
:1050900000B4021639F01FBA20BD0FB6F894FA9A80
:1050A000F99A0FBE08950396272F0E9442280E9466
:1050B0004128252F0E944228242F0C944228019633
:1050C000272F0E9442280C944128DC01CB0103C009
:1050D0002D910E94702841505040D0F70895262FFE
:1050E000F999FECF1FBA92BD81BD20BD0FB6F894CD
:1050F000FA9AF99A0FBE01960895F894FFCF4B0FD4
:10510000730F2111730F2111A60FC70F2111D0109A
:10511000DD106E2588258F2531243124C925DD2514
:10512000F0252E2633265A266C26812684268D26A7
:0C5130009826AF26E526022726273927FF
:10513C00013605470A400A34053505AF0001010167
:10514C001B1B1B1B1B1B1B1B9091929395979694DF
:10515C003435366667F7F6F5F4F1F0C644223B09B0
:0C516C0001E700AC00DF05F805180600A4
:00000001FF
