:100000000C9404020C943C020C943C020C943C02B0
:100010000C943C020C943C020C943C020C943C0268
:100020000C943C020C943C020C94D40D0C94900D56
:100030000C94D10E0C943C020C943C020C943C02A7
:100040000C943C020C943C020C943C020C943C0238
:100050000C943C020C94AD0E0C943C020C943C02AB
:100060000C943C020C943C020C943C020C943C0218
:100070000C943C020C943C020C943C020C943C0208
:100080000C943C020C943C020C943C020C943C02F8
:100090000C943C020C943C020C943C020C943C02E8
:1000A0000C943C020C943C020C943C0229001E006F
:1000B0001F0020002100220023002400250026002C
:1000C00027002D002E00310035002B0014001A00EF
:1000D0000800150017001C0018000C001200130087
:1000E0002F0030002A000000E00004001600070086
:1000F00009000A000B000D000E000F003300340051
:10010000280000000000E10000001D001B000600A8
:100110001900050011001000360037003800E50016
:1001200021520000E000E300E200000000000000B7
:100130002C000000000000000000E600E700E400E2
:10014000000035003A003B003C003D003E003F000F
:10015000400041004200430044004500010001000E
:1001600039000100520001000100010001000100FE
:10017000010001000100520001004C0000000100DC
:10018000500051004F0001000100010001004A0031
:100190004B0050004F0001000000000023520000FF
:1001A00001000100010001000100010001004D00FB
:1001B0004E00510001000100000001000100225228
:1001C000000000000000010000000000000000002E
:1001D0000100010001000000010001000100010018
:1001E000010001000100AC00AE00AB00A800AA00B5
:1001F000A90001000100010001000100010001004F
:1002000001000100010001000100010001000100E6
:1002100001000000010001000100010001000100D7
:1002200001000100010001000100010001000000C7
:1002300000000100000001000100010001000100B8
:1002400001000100010001000100010001000000A7
:10025000010001000100000000000000010000009A
:10026000000000000000010001000100000001008A
:100270000100010001000100010001000100010076
:100280000100010001000100010001000100010066
:100290000100010001000100010001000100010056
:1002A0000100010001000100000001000100010047
:1002B0000100010001000100010001000100010036
:1002C0000100010000000000010000000100010029
:1002D0000100010001000100010001000100010016
:1002E0000100010000000100010001000000000009
:1002F00000000100000000000000000001000100FB
:100300000100000005010906A1018506050719E0A5
:1003100029E71500250195087501810205071900D7
:1003200029EF1500250195F07501810205081901D5
:100330002905950575019102950175039101C00587
:10034000010906A101050719E029E7150025019516
:1003500008750181029501750881010507190029B9
:10036000FF150026FF009506750881000508190194
:100370002905150025019505750191029501750363
:100380009101C009023B00020100A0FA090400002B
:1003900001030101000921110100012244000705A8
:1003A0008103080001090401000103000000092184
:1003B00011010001223B0007058203200001120108
:1003C0000002000000081B1B1B1B000101020001B2
:1003D0001E036F00700069006E0069006F006E0000
:1003E00061007400650064005F00360030000000AA
:1003F000120351004D004B002F00560069006100B0
:100400006C0000000403090411241FBECFEFDAE0E2
:10041000DEBFCDBF04B603FE18C08091D901909114
:10042000DA01A091DB01B091DC018730904BA7404D
:10043000B04B59F41092D9011092DA011092DB01FD
:100440001092DC01E0E0F8E3099511E0A0E0B1E0F2
:10045000ECE4F3E202C005900D92A032B107D9F7A7
:1004600021E0A0E2B1E001C01D92A93DB207E1F791
:100470000E94F80E0C949A110C940000E8EDF0E044
:1004800080818E7F80831092E2001092DA001092B9
:10049000E100A0EEB0E08C9181608C9380818F7739
:1004A000808319BCA7EDB0E08C918E7F8C93808106
:1004B0008F7E80831092C10108952091E4003091D5
:1004C000E50095E6A9012091EC00822F817020FFC4
:1004D00006C08091E80080FF06C080E0089520916A
:1004E000E80022FD1AC08091CF01882389F0853071
:1004F00089F08091EB0085FD0FC02091E4003091E0
:10050000E50042175307F9F29150E1F684E00895AF
:1005100082E0089583E0089581E008958091D101FB
:1005200087FF13C08091E80082FF06C08091E80039
:100530008B778093E80004C08091CF018111F2CFC6
:1005400008958091CF018823D9F38091E80080FF3E
:10055000F8CF8091E8008E77ECCF982F9093E90048
:10056000242F762F50E0891731F07091EC00209104
:10057000ED005091F00021FD07C09F5F973071F7AB
:100580008093E90081E008953091EB003E7F309345
:10059000EB003091ED003D7F3093ED003091EB00AA
:1005A00031603093EB007093EC002093ED0050939A
:1005B000F0002091EE0027FDE0CF80E00895B0E04C
:1005C000A0E0E5EEF2E00C940811C8EDD0E08881DF
:1005D0008F7E8883E7EDF0E080818160808384E016
:1005E00082BF81E08093C10188818E7F888302EE83
:1005F00010E0F80110821092DA0081EEC82ED12CA2
:10060000F601108288818F7788838881806888834B
:1006100088818F7D888319BC1092CF011092D00100
:100620001092CE011092CD0190EEE92EF12CF7013F
:1006300080818B7F808388818160888342E060E055
:1006400080E00E94AD02F60180818E7F8083F801F8
:10065000808181608083808188608083F7018081D0
:100660008E7F8083888180618883CDB7DEB7E8E0A4
:100670000C942411FC018091D7019091D801861728
:100680009707A0F06115710529F49091E8009E7715
:100690009093E80090E06115710551F4911108C044
:1006A0008091E80082FF34C080E00895BC01F2CF61
:1006B0008091CF018823C1F18530C1F18091E8009C
:1006C00083FD30C08091E80082FDEACF8091E80090
:1006D00080FFE1CF8091F3002091F200382F611567
:1006E000710519F02830310558F091E028303105B6
:1006F00009F090E02091E8002E772093E800CBCF1E
:1007000081918093F100615071092F5F3F4FE7CFD6
:100710008091CF01882341F0853041F08091E8003D
:1007200083FFBECF81E0089582E0089583E00895BD
:10073000089508958091C40108952FB7F894809189
:10074000BD019091BE01A091BF01B091C0012FBF2A
:10075000089590910A019923D1F09091BA0197FFE1
:1007600016C0E82FE695E695E695EE31E0F4F0E068
:10077000E65DFE4F282F277081E090E001C0880FD2
:100780002A95EAF780959281892382830895E4E28D
:10079000F1E09191891303C0DF0111971C9291E060
:1007A000EA32F907B1F70895E091B801F091B90183
:1007B000309729F00190F081E02D0995089580E0AF
:1007C000089580E00895F894E82FE295EF70F0E046
:1007D00031A1282F2F7081E090E001C0880F2A9569
:1007E000EAF7982F9095932391A392A1892B82A346
:1007F000789408959091BA0192FF10C041E0282F9B
:100800002471243009F040E031E0282F287128308D
:1008100009F030E0431711F02CE0822793FF10C05D
:1008200041E0282F2471243109F040E031E0282FE5
:100830002871283109F030E0431711F02CE08227AD
:100840003091BB0130FF10C051E0282F21712130C1
:1008500009F050E041E0282F2871283009F040E0ED
:10086000541711F029E0822731FF10C041E0282FF2
:100870002171213109F040E031E0282F2871283121
:1008800009F030E0431711F029E0822794FD877EBC
:10089000089582389105B9F1B0F48133910509F4D6
:1008A0007DC048F48932910509F46DC08A32910502
:1008B00009F47BC008958533910509F45FC089333D
:1008C000910509F10895833E9105D9F138F4803EF0
:1008D000910529F1823E910579F10895863E9105B1
:1008E000D9F1873E910509F43EC0843E910541F55A
:1008F0002091BB0121FF24C08091BA0184FD19C061
:1009000087EE90E008952091BA01237009F05AC053
:100910002091BB0123FF14C089E290E0089520914B
:10092000BA0120FD38C03091BB0130FF09C024FF5F
:1009300043C090E080E008952091BA0122FDF7CFF6
:1009400008952091BA0122FD3AC03091BB0130FDDB
:1009500039C024FFF5CFEDCF2091BA0123FFF0CFAE
:1009600024FDE7CFCDCF2091BA0123FD2EC03091D9
:10097000BB0131FFEECF84EE90E008952091BA01E3
:1009800025FFDECFC9CF2091BA0125FD21C02091DE
:10099000BB0123FFD5CF89E390E0D2CF2091BA01EC
:1009A00026FFCECF8AE290E008952091BA0126FF7B
:1009B000C7CF81E390E0089583EE90E0089582EE42
:1009C00090E0089580EE90E0089586EE90E008951E
:1009D00085E390E00895972F7530B8F46F30A8F450
:1009E0008430B0F470E02FE0929F600D711D1124EF
:1009F000FB019BE4899FE00DF11D1124EE0FFF1F09
:100A0000E455FF4F85919491089580E090E008951A
:100A100081E0FCCF0F931F93CF93DF930E94490493
:100A2000EC01C11582E5D807D8F5C11580E5D807D6
:100A300008F0B3C0C83ED105C8F4C03ED10580F46B
:100A4000C53AD10548F4C430D10550F4C130D105C0
:100A500039F0D0E0C0E004C0CD3CD105D0F3D06582
:100A6000CE01DF91CF911F910F910895C11581E0C3
:100A7000D80778F38E011127C11580E2D80708F056
:100A8000A6C08D2F0E94FA03C82FC8010E944904F6
:100A9000D0E0DC2FCC27CC27DF71C82BD92BE0CFBF
:100AA000C03682E5D807F0F4C03482E5D80708F0F4
:100AB00054C0C03282E5D80708F048C02C2F2695D4
:100AC000269580E2289F900111248C2F8370C1E02D
:100AD000D0E002C0CC0FDD1F8A95E2F7C22BD32BEA
:100AE000DD68BECFC03C82E5D807F8F4C03A82E5A5
:100AF000D80708F047C0C03882E5D80708F0A9CF6A
:100B00002C2F26952695277080E2289F900111248E
:100B10008C2F8370C1E0D0E002C0CC0FDD1F8A951E
:100B2000E2F7C22BD32BDA689BCFC03E82E5D80711
:100B300008F08FCF9E0143E0220F331F4A95E1F763
:100B4000207E3327CE0183709927E4CFCF71D0E088
:100B5000DC2FCC27C16FD06A83CF2C2F269526950A
:100B6000277080E2289F900111248C2F8370C1E0B0
:100B7000D0E002C0CC0FDD1F8A95E2F7C22BD32B49
:100B8000DC686ECF8C2F8F710E94FA03C82FD0E0E3
:100B9000DC2FCC27CC27DF7163CF8C2F8F710E9485
:100BA000FA0395E0D695C7959A95E1F7CF70D0E016
:100BB000DC2FCC27282F30E084FF05C084E0220FF3
:100BC000331F8A95E1F7C22BD32BD06949CFC801D7
:100BD0000E944904EC0144CFCF92DF92FF920F9321
:100BE0001F93CF93DF936C010091A1018091A0012D
:100BF000082BC7E0D0E010E0FC2EC8010C2E02C08C
:100C0000959587950A94E2F780FD0CC02197A0F78F
:100C1000F12C8F2DDF91CF911F910F91FF90DF90DD
:100C2000CF900895B6018C2F0E94EB040E940A0514
:100C3000019761F3EECF292F953078F58F3068F565
:100C400090E03FE0239F800D911D1124682F677075
:100C500023E0969587952A95E1F7FC01EE0FFF1F9B
:100C6000E80FF91FE65BFE4F50E040E080E0219185
:100C700030E0062E02C0369527950A94E2F72170DF
:100C80003327042E01C0220F0A94EAF7822B4F5F0C
:100C90005F4F4330510559F7089580E00895292F9B
:100CA000953098F58F3088F590E03FE0239F800DD8
:100CB000911D1124282F277041E001C0440F2A956F
:100CC000EAF723E0969587952A95E1F7FC01EE0F68
:100CD000FF1FE80FF91FE65BFE4F30E020E070E0F9
:100CE0005191DF011197CB01022E02C09695879595
:100CF0000A94E2F7817081958527842385278C9358
:100D00002F5F3F4F2330310559F708958093A1019C
:100D1000089521E030E001C0220F8A95EAF720957E
:100D20008091A10182230E948606089521E030E08F
:100D300001C0220F8A95EAF78091A101822B0E94BF
:100D4000860608958093A0010895A6E0B0E0EBEA3E
:100D5000F6E00C940D1149835A8349815A819923F5
:100D6000A1F0222391F0CA010E94EC05182F682FF0
:100D700089819A810E944F0669817A81812F0E9420
:100D8000EB042696E3E00C942911CA010E941B068D
:100D9000182FF2CF0F931F93CF93DF938B01EA01AC
:100DA0009091CF01943061F58093E9008FEF90919D
:100DB000E800815095FD06C095ED9A95F1F7000089
:100DC0008111F5CF8091E80085FF1AC00E945D0275
:100DD000811111C08091E80085FD06C08091E80076
:100DE0008E778093E800F2CFF80181918F01809394
:100DF000F100219779F78091E8008E778093E800E1
:100E0000DF91CF911F910F91089540E250E0BC0116
:100E100082E00E94CA060895CF93DF93EC0148E078
:100E200050E0BC0181E00E94CA0688E0FE01A5EC0A
:100E3000B1E001900D928A95E1F7DF91CF9108958D
:100E400081E08093E00080E28093D8001092C90096
:100E50008FE19EE40197F1F700C0000087E090EB7E
:100E6000DC018093D9019093DA01A093DB01B09368
:100E7000DC0188E19CE00FB6F894A89580936000AF
:100E80000FBE90936000FFCF809188019091C201C6
:100E9000892B90910A01992349F19091BA0197FF0A
:100EA00025C080932B0140E250E068E671E08AE2C1
:100EB00091E00E943B11892BC1F080E2EAE2F1E06F
:100EC000A8E6B1E001900D928A95E1F7E091B801B2
:100ED000F091B901309749F086E080932A010480AF
:100EE000F581E02D8AE291E0099508958093220131
:100EF00048E050E069E871E082E291E00E943B1135
:100F0000892B99F388E0E2E2F1E0A9E8B1E00190F1
:100F10000D928A95E1F7E091B801F091B90130970F
:100F200021F30280F381E02D82E291E0DDCF809118
:100F30000A01882381F08091BA0187FF0CC0ECE29E
:100F4000F1E08EE1DF011D928A95E9F710928801A8
:100F50000E9444070895E4E2F1E086E0F3CFAAE2BC
:100F6000B0E0E5EBF7E00C940D1181ED91E02091FC
:100F7000F100FC012193CF01F1E0893D9F07B9F712
:100F80008091D201833009F470C0B8F4813009F443
:100F900047C0823009F4B3C08091E80083FF80C26B
:100FA0008091D1019091D2019A3008F079C2E92F55
:100FB000F0E0E456FE4E0C9435118A3009F48EC0F0
:100FC0008B3009F46FC0893039F78091D1018132BB
:100FD00019F78091D5019091D6010297E8F680919A
:100FE000E800877F8093E8008091E80082FF38C0A6
:100FF0009091F3008091F200029731F48091F1001A
:10100000813011F0863021F48091F1008093C40189
:101010008091E8008B778093E8000E948E02BCCF1D
:101020008091D101813A09F0B7CF8091E800877FA4
:101030008093E8008091D5019091D601892B61F4CD
:1010400068E085EC91E070E00E943A038091E8004E
:101050008B778093E800A0CF60E090E080E0F3CF52
:101060008091CF018111C0CF97CF8091D101813A7A
:1010700009F092CF8091D5019091D601892B09F08A
:101080008BCF8091E800877F8093E8008091E80013
:1010900080FFFCCF80910A018093F1008091E800ED
:1010A0008E77B9CF8091D101813209F075CF8091CF
:1010B000D5019091D601892B09F06ECF8091E8007F
:1010C000877F8093E8000E948E028091D3018093F5
:1010D0000A011092C2010E9497075ECF8091D10150
:1010E000813209F059CF8091E800877F8093E80032
:1010F0000E948E028091D4018093C3014DCF8091D4
:10110000D101813A09F048CF8091E800877F809330
:10111000E8008091E80080FFFCCF8091C301BCCF44
:10112000803899F0823809F0BBC18091D5018F7069
:10113000873008F0B5C18093E9008091EB0085FB12
:10114000882780F91092E90006C08091CD01909126
:10115000CE01911182609091E800977F9093E80012
:101160008093F1001092F1008091E8008E7794C195
:10117000882309F482C1823009F092C18091D301A1
:10118000811185C18091D5018F702FEF280F2630F6
:1011900008F086C18093E9002091EB0020FF77C121
:1011A000933031F48091EB0080628093EB006FC14B
:1011B0009091EB0090619093EB0021E030E001C052
:1011C000220F8A95EAF72093EA001092EA008091B4
:1011D000EB008860EACF811163C11091D3011F77C2
:1011E0008091E3008078812B8093E3008091E80078
:1011F000877F8093E8000E948E028091E80080FF44
:10120000FCCF8091E30080688093E30082E01111BD
:1012100083E08093CF0144C18058823008F040C100
:101220008091D3019091D4018C3D23E09207A1F5E8
:1012300083E08A838AE289834FB7F894DE011396AC
:1012400020E03EE051E2E32FF0E050935700E491BC
:1012500020FF03C0E295EF703F5FEF708E2F90E0AC
:10126000EA30C0F0C7968D939D932F5F243159F7D4
:101270004FBF8091E800877F8093E8006AE270E0CA
:10128000CE0101960E943A038091E8008B7780930B
:10129000E80006C1C096E7CF4091D5015091D60134
:1012A000292F33272330310509F444C078F5213044
:1012B000310509F46FC08BE390E0E3E8F3E02230FE
:1012C000310509F0EDC02091E800277F2093E80068
:1012D0002091D7013091D8018217930708F49C011F
:1012E00040E02115310509F064C0411162C08091D0
:1012F000E80082FDC9CF8091CF01882329F2853093
:1013000019F28091E80083FFF2CFBECF2132310580
:10131000A9F12232310509F0C3C04115510509F484
:1013200043C04130510509F0BBC08BE390E0E4E0DD
:10133000F3E0C9CF992781309105C1F0009759F0AA
:10134000029709F0ADC0E0EDF3E0E4918E2F90E05C
:10135000E0EDF3E007C0E4E0F4E0E4918E2F90E0EC
:10136000E4E0F4E0009709F49BC0ADCFE0EFF3E0D8
:10137000E4918E2F90E0E0EFF3E0F4CF41155105BA
:1013800071F04130510509F08BC089E090E0EEEA40
:10139000F3E099CF82E190E0EEEBF3E094CF89E0C7
:1013A00090E0E5E9F3E08FCF84E490E0EFE3F3E051
:1013B0008ACF8091CF01882309F466CF853009F464
:1013C00063CF8091E80083FD5FCF8091E80082FDCC
:1013D0008ECF8091E80080FF84CF9091F3008091C0
:1013E000F2002115310519F08830910550F041E0E7
:1013F000089709F040E08091E8008E778093E8003C
:1014000070CF44914093F1003196215031090196FB
:10141000E8CF803809F044C08091E800877F80934E
:10142000E8008091D0018093F1009ECE811138C0F8
:101430001091D3011230A0F58091E800877F80934E
:10144000E8001093D0010E948E02112311F084E075
:1014500005C08091E30087FDFACF81E08093CF0142
:1014600042E061EC81E00E94AD0242E261EC82E088
:101470000E94AD028091CF0113C08091D3018130D1
:1014800079F481E0933009F080E08093CE011092EE
:10149000E9008091E800877F8093E8000E948E0237
:1014A0008091E80083FF0AC08091E800877F8093E5
:1014B000E8008091EB0080628093EB00AA96E3E065
:1014C0000C9429111092C2010E9497072FEF84E318
:1014D0009CE0215080409040E1F700C0000088E18E
:1014E0009CE00FB6F894A895809360000FBE90938F
:1014F0006000FFCF882341F09CEF980F913A28F4C9
:101500000E94A9030E944407089590E2980F983022
:10151000D8F7877021E030E0A90102C0440F551FC1
:101520008A95E2F7CA0180959091C2018923809340
:10153000C201E8CFCF93C82F882309F440C08CEFB5
:101540008C0F813A08F062C080910A018823C9F1AA
:101550008091BA0187FF35C0EC2FE695E695E695B8
:10156000F0E0E65DFE4F828190E04C2F477021E075
:1015700030E002C0220F331F4A95E2F78223932303
:10158000892B51F08C2F0E94A9030E94440722C08E
:101590008091BA0187FF22C0EC2FE695E695E6958B
:1015A000F0E0E65DFE4FC77021E030E001C0220FA1
:1015B000CA95EAF78281822B82830E944407CF91E9
:1015C0000895E4E2F1E08191C817E1F281E0EA32A6
:1015D000F807C9F780910A018111DACFA4E2B1E0DE
:1015E000EFEF80E09D91C91741F3EF3F19F491119E
:1015F00001C0E82F8F5F8630A9F7EF3FF1F20E2E82
:10160000000CFF0BEE5DFE4FC283D7CF80E28C0F44
:101610008830A8F6C77021E030E001C0220FCA95DB
:10162000EAF78091C201822B8093C201C6CFACE061
:10163000B0E0EDE1FBE00C9409114F835887698716
:101640007A878B879C87192F91111092880186E0E9
:10165000FE013796DE01119601900D928A95E1F711
:101660008B85882309F469C08D831E8321E049811D
:101670005A816B817C81912F0E94A50621E04981CE
:101680005A816B817C818D819E810E94A5061123E8
:1016900011F181302CE79207E1F083303CE79307AA
:1016A00091F081159C47B9F41092C2010E949707EE
:1016B0003FEF84E39CE0315080409040E1F700C070
:1016C00000000E9420076FEF7FEF90E080E00E9413
:1016D00084110E94620AE980FA80C701112389F10E
:1016E0000E94EC05082F682FC7010E944F06B70122
:1016F000802F0E94EB040E940A05082FD82EF92E95
:10170000F2942FE0F22228E0F21609F475C02F15AA
:10171000E0F031E03F1598F52F2D2850330B2230A3
:10172000310510F40E94D40320E049815A816B8175
:101730007C818D819E810E94A5062C96E7E00C9409
:1017400025110E941B06082FD2CF89E0F81609F454
:10175000C4C02BE02F1500F382EF081709F4DBC09B
:1017600023EF021709F4DDC031EF0313E4C0892F22
:101770008F71112309F4CCC00E949606CDCF392F6A
:101780003F70E32E907F19F0E29480EFE822802FE3
:101790001123C9F0EE2069F090E2900F983010F01C
:1017A00001110BC08091C201E82AE092C2010E949F
:1017B0004407802F0E949A0AAFCF80918801E82ABF
:1017C000E0928801F4CF0E947A0AEE2009F4A4CFB7
:1017D000E094005E083010F0D11008C08091C20182
:1017E000E822E092C2010E94440796CF80918801CE
:1017F000E822E0928801F7CF892F8370A1F51111BB
:101800008BCF802F829586958770880F880F402F09
:101810004F70082E01C0440F0A94EAF7202F207160
:1018200004FF07C02FE030E001C0220F8A95EAF7DD
:101830002095969596959370923081F0822F842B07
:10184000933030F48091A001913029F0242B822331
:101850000E94A20661CF842B822BFACF242B809189
:10186000A0018227F5CF8695112311F0892F817071
:10187000882309F451CF802F829586958770880F31
:10188000880F402F4F70082E01C0440F0A94EAF7CA
:10189000202F207104FF07C02FE030E001C0220F8D
:1018A0008A95EAF72095969596959370923081F0F7
:1018B000822F842B933030F48091A101913029F054
:1018C000242B82230E94860627CF842B822BFACFDB
:1018D000242B8091A1018227F5CF9F70E92E11233F
:1018E00061F0892F0E949606002309F415CF80919C
:1018F000C201082B0093C20176CF002341F000956E
:101900008091C20108230093C2010E9444078E2DDA
:101910000E94890601CF892F8F71112309F42CCFE2
:10192000F7CF80E0112371F29F7181E001C0880F31
:101930009A95EAF7C7CF11113CCF89E3081309C084
:101940009FEF27EE33E0915020403040E1F700C098
:101950000000802F0E947A0ADFCEA6E0B0E0E3EB21
:10196000FCE00C940C110E949D038C01809191016C
:10197000909192018017910781F019821A820E943A
:101980009D03682F49815A81792F80E090E00E9461
:10199000170B10939201009391012696E4E00C94AA
:1019A0002811AAE0B0E0E7EDFCE00C9402118E01F2
:1019B0000F5F1F4F8AE0F80111928A95E9F79BE0CB
:1019C000E92E91E0F92E680120E1622E21E0722ECD
:1019D00088248394912CF70181917F018F3F09F432
:1019E00046C0F894E82FE295EF70F0E021A18F70E7
:1019F000A40102C0440F551F8A95E2F7CA01922F35
:101A0000982B91A392A18095892382A3789400C0FA
:101A1000E0E1F1E021E030E0B12CA12C41914F3F19
:101A200009F44CC0A42FA295AF70B0E090968C91B1
:101A300090E04F7002C0959587954A95E2F780FD3A
:101A40003DC0C901A82AB92A220F331F51E0EF3146
:101A5000F50721F7F701319780818F3F11F00E9440
:101A6000E30380EA8A95F1F7F601B182A082F2E001
:101A7000CF0ED11C6E147F0409F0ADCF4AE050E0C8
:101A8000B80186E991E00E943B11892BE1F08AE0E0
:101A9000F801A6E9B1E001900D928A95E1F781E0A5
:101AA000809395010E949D039093940180939301EC
:101AB00010E0812F2A96EEE00C941E1190E080E059
:101AC000C1CF10E02AC010919501112389F3209114
:101AD0009301309194014FB7F8948091BD0190919A
:101AE000BE01A091BF01B091C0014FBF821B930BFB
:101AF0000597F0F24AE050E066E971E082EA91E091
:101B00000E943B11892BE9F28AE0E6E9F1E0A2EAC2
:101B1000B1E001900D928A95E1F710929501C9CF3D
:101B20001F920F920FB60F9211242F933F934F9352
:101B30005F936F937F938F939F93AF93BF93CF9355
:101B4000DF93EF93FF93D091E900DF708091EC0079
:101B5000C82FC17080FDC0E81092E9008091F000AC
:101B6000877F8093F00078940E94AF071092E9007D
:101B70008091F00088608093F000CD2BCF70C093EF
:101B8000E900FF91EF91DF91CF91BF91AF919F91CC
:101B90008F917F916F915F914F913F912F910F9016
:101BA0000FBE0F901F9018951F920F920FB60F92B5
:101BB00011242F933F934F935F936F937F938F9352
:101BC0009F93AF93BF93EF93FF938091E10082FFC8
:101BD00009C08091E20082FF05C08091E1008B7F07
:101BE0008093E1008091DA0080FF24C08091D800CA
:101BF00080FF20C08091DA008E7F8093DA00809190
:101C0000D90080FF9DC080E189BD82E189BD09B412
:101C100000FEFDCF81E08093CF018091C101811151
:101C200009C00E943E020E94DF028091E2008460AF
:101C30008093E2008091E10080FF17C08091E20074
:101C400080FF13C08091E2008E7F8093E20080913C
:101C5000E20080618093E2008091D80080628093EE
:101C6000D80019BC85E08093CF018091E10084FF0A
:101C70002BC08091E20084FF27C080E189BD82E112
:101C800089BD89B5982F917080FFFBCF8091D800D6
:101C90008F7D8093D8008091E1008F7E8093E1005A
:101CA0008091E2008F7E8093E2008091E20081606B
:101CB0008093E2008091D001882309F447C084E03A
:101CC0008093CF018091CF018091E10083FF27C0F5
:101CD0008091E20083FF23C08091E100877F8093A1
:101CE000E10082E08093CF011092D0018091E10069
:101CF0008E7F8093E1008091E2008E7F8093E200EE
:101D00008091E20080618093E20042E060E080E048
:101D10000E94AD028091F00088608093F000FF91F6
:101D2000EF91BF91AF919F918F917F916F915F9153
:101D30004F913F912F910F900FBE0F901F901895CC
:101D400019BC1092CF011092C10174CF8091E300B1
:101D500087FD93E09093CF01B5CF78941F921FB683
:101D60001F9211248F939F93AF93BF938091BD01D6
:101D70009091BE01A091BF01B091C0010196A11D3B
:101D8000B11D8093BD019093BE01A093BF01B0939C
:101D9000C001BF91AF919F918F911F901FBE1F9067
:101DA00018951F921FB61F9211248F939F93AF9384
:101DB000BF938091BC01811113C08091BD019091AE
:101DC000BE01A091BF01B091C0014196A11DB11DFE
:101DD0008093BD019093BE01A093BF01B093C00159
:101DE000BF91AF919F918F911F901FBE1F9018952B
:101DF000CDB7DEB728970FB6F894DEBF0FBECDBFC4
:101E000085B7806885BF85B7806885BF84B7877FC1
:101E100084BF0FB6F894A895809160008861809384
:101E20006000109260000FBE80E890E00FB6F8945A
:101E300080936100909361000FBE81EE93E09093D8
:101E40002101809320010E943E020E94DF028091C6
:101E5000E20084608093E20078948091CF0188232F
:101E6000A1F01091E9001F709091EC00892F817012
:101E700090FD80E8182B1092E9008091E80083FD26
:101E80000E94AF071F701093E90082E084BD93E0C9
:101E900095BD9AEF97BD80936E000BE011E070E165
:101EA000E72E71E0F72ED8018D918D018F3F11F053
:101EB0000E94E303E016F106B1F700E111E06FE1E3
:101EC000E62E61E0F62EF80181918F018F3F11F02F
:101ED0000E94E303E016F106B1F78AE0E2EAF1E0DE
:101EE000DF01282F1D922A95E9F7E6E9F1E0DF01ED
:101EF0001D928A95E9F790E080E00E945011863E9D
:101F00009E4F09F463C066EE7EEF90E080E00E9491
:101F1000841160E082E090E00E94661181E080938D
:101F2000A00161E083E090E00E94661160E074E14E
:101F300084E090E00E94841160E086E090E00E94DE
:101F4000661160E087E090E00E94661140E050E09A
:101F5000BA0188E090E00E94781160E084E290E0AD
:101F60000E94661160E087E190E00E94661160E0E7
:101F70008CE090E00E94661160E08DE090E00E94AD
:101F8000661119821A821B821C821D821E821F8288
:101F9000188648E050E068E170E0CE0101960E94AA
:101FA000561140E050E0BA0180E290E00E947811C2
:101FB00040E050E0BA018FE090E00E94781140E0EC
:101FC00050E0BA0183E190E00E94781182E090E055
:101FD0000E9448118093AC0184E090E00E9450116F
:101FE0009093BB018093BA010E94D10CEFEFF6E70A
:101FF00021E0E150F0402040E1F700C000000E94E5
:10200000D10C8091A6019091A70194FF08C06FEFB9
:102010007FEF90E080E00E9484110E94200783E01F
:1020200090E00E9448110E94A20680E091E0909307
:10203000B9018093B80148E1442E512C5CEA652E29
:1020400051E0752E8091CF0112E1853009F496C0E0
:102050000E94D10C2DEAA22E21E0B22E32EA832E6C
:1020600031E0932E47EB51E0D401F50121913191FC
:102070008D919D914E175F0709F48CC02817390781
:10208000A9F3312CD4010D911D914D01F501C190A1
:10209000D1905F01C016D10661F1C026D126212C56
:1020A000EE24E394F12CC7018C219D21892BB9F0FA
:1020B00029823A820E949D039C838B83F1E0FD83F9
:1020C00091E0970120233123232B09F490E09E8394
:1020D00049815A816B817C818D810E94170B2394E9
:1020E000EE0CFF1C2FE02212DECFF5013297118398
:1020F0000083339485E03812C5CF8FB7F8944091B0
:10210000BD015091BE016091BF017091C0018FBFB0
:1021100047C08091CF01843011F11092BC0180E45E
:102120000FB6F894A895409260000FBE80936000AF
:1021300083B7817F846083BF83B7816083BF7894D6
:10214000889583B78E7F83BF0FB6F894A89580914A
:102150006000886180936000109260000FBE8091E3
:10216000CE01882359F00E94D10CE2EAF1E081917E
:102170009191892B51F56E167F06C9F78091CF0199
:10218000853009F4C6CF1092C2010E9497070E94C1
:10219000D4035ECF2817390709F073CF0E94AD0C26
:1021A0000E94D4039091B701891709F44BCF809313
:1021B000B7018FB7F8944091BD015091BE01609175
:1021C000BF017091C0018FBF3DCF90E199BD19BD96
:1021D00009B400FEFDCF8091D8008F7D8093D80098
:1021E0008091E00082608093E0008091E00081FDBA
:1021F000FCCF1092C2010E949707C0CF2F923F924E
:102200004F925F926F927F928F929F92AF92BF9206
:10221000CF92DF92EF92FF920F931F93CF93DF93B2
:10222000CDB7DEB7CA1BDB0B0FB6F894DEBF0FBE0F
:10223000CDBF09942A88398848885F846E847D845C
:102240008C849B84AA84B984C884DF80EE80FD805E
:102250000C811B81AA81B981CE0FD11D0FB6F894D4
:10226000DEBF0FBECDBFED010895EE0FFF1F05903D
:10227000F491E02D0994FB01DC0104C08D910190E3
:10228000801921F441505040C8F7881B990B0895DC
:10229000F999FECF92BD81BDF89A992780B508952E
:1022A000A8E1B0E042E050E00C948C11DC01A40FF6
:1022B000B51F4150504048F0CB01840F951F2E911F
:1022C0000E94671141505040D0F70895262FF99988
:1022D000FECF92BD81BDF89A019700B4021639F085
:1022E0001FBA20BD0FB6F894FA9AF99A0FBE089556
:1022F0000396272F0E9467110E946611252F0E94C6
:102300006711242F0C9467110196272F0E946711E3
:102310000C946611DC01CB01FC01F999FECF06C0DB
:10232000F2BDE1BDF89A319600B40D924150504093
:10233000B8F70895F894FFCF9008B808500AB80885
:0C234000500AEB080C09500A090A160AA2
:10234C009A030C07050798039903019091929395B2
:10235C009796943435366667F7F6F5F4F1F0C600C7
:00000001FF
